{"abi":[{"type":"constructor","inputs":[{"name":"_owner","type":"address","internalType":"address"},{"name":"_dmdToken","type":"address","internalType":"contract IDMDToken"},{"name":"_vault","type":"address","internalType":"contract IBTCReserveVault"},{"name":"_scheduler","type":"address","internalType":"contract IEmissionScheduler"}],"stateMutability":"nonpayable"},{"type":"function","name":"EPOCH_DURATION","inputs":[],"outputs":[{"name":"","type":"uint256","internalType":"uint256"}],"stateMutability":"view"},{"type":"function","name":"claim","inputs":[{"name":"epochId","type":"uint256","internalType":"uint256"}],"outputs":[],"stateMutability":"nonpayable"},{"type":"function","name":"claimMultiple","inputs":[{"name":"epochIds","type":"uint256[]","internalType":"uint256[]"}],"outputs":[],"stateMutability":"nonpayable"},{"type":"function","name":"claimed","inputs":[{"name":"","type":"uint256","internalType":"uint256"},{"name":"","type":"address","internalType":"address"}],"outputs":[{"name":"","type":"bool","internalType":"bool"}],"stateMutability":"view"},{"type":"function","name":"claimedTotal","inputs":[{"name":"","type":"uint256","internalType":"uint256"}],"outputs":[{"name":"","type":"uint256","internalType":"uint256"}],"stateMutability":"view"},{"type":"function","name":"distributionStartTime","inputs":[],"outputs":[{"name":"","type":"uint256","internalType":"uint256"}],"stateMutability":"view"},{"type":"function","name":"dmdToken","inputs":[],"outputs":[{"name":"","type":"address","internalType":"contract IDMDToken"}],"stateMutability":"view"},{"type":"function","name":"epochs","inputs":[{"name":"","type":"uint256","internalType":"uint256"}],"outputs":[{"name":"totalEmission","type":"uint256","internalType":"uint256"},{"name":"snapshotWeight","type":"uint256","internalType":"uint256"},{"name":"finalized","type":"bool","internalType":"bool"}],"stateMutability":"view"},{"type":"function","name":"finalizeEpoch","inputs":[],"outputs":[],"stateMutability":"nonpayable"},{"type":"function","name":"getClaimableAmount","inputs":[{"name":"user","type":"address","internalType":"address"},{"name":"epochId","type":"uint256","internalType":"uint256"}],"outputs":[{"name":"","type":"uint256","internalType":"uint256"}],"stateMutability":"view"},{"type":"function","name":"getCurrentEpoch","inputs":[],"outputs":[{"name":"","type":"uint256","internalType":"uint256"}],"stateMutability":"view"},{"type":"function","name":"getEpochData","inputs":[{"name":"epochId","type":"uint256","internalType":"uint256"}],"outputs":[{"name":"totalEmission","type":"uint256","internalType":"uint256"},{"name":"snapshotWeight","type":"uint256","internalType":"uint256"},{"name":"finalized","type":"bool","internalType":"bool"}],"stateMutability":"view"},{"type":"function","name":"getTotalClaimable","inputs":[{"name":"user","type":"address","internalType":"address"},{"name":"epochIds","type":"uint256[]","internalType":"uint256[]"}],"outputs":[{"name":"total","type":"uint256","internalType":"uint256"}],"stateMutability":"view"},{"type":"function","name":"hasClaimed","inputs":[{"name":"user","type":"address","internalType":"address"},{"name":"epochId","type":"uint256","internalType":"uint256"}],"outputs":[{"name":"","type":"bool","internalType":"bool"}],"stateMutability":"view"},{"type":"function","name":"lastClaimEpoch","inputs":[],"outputs":[{"name":"","type":"uint256","internalType":"uint256"}],"stateMutability":"view"},{"type":"function","name":"owner","inputs":[],"outputs":[{"name":"","type":"address","internalType":"address"}],"stateMutability":"view"},{"type":"function","name":"scheduler","inputs":[],"outputs":[{"name":"","type":"address","internalType":"contract IEmissionScheduler"}],"stateMutability":"view"},{"type":"function","name":"startDistribution","inputs":[],"outputs":[],"stateMutability":"nonpayable"},{"type":"function","name":"vault","inputs":[],"outputs":[{"name":"","type":"address","internalType":"contract IBTCReserveVault"}],"stateMutability":"view"},{"type":"event","name":"Claimed","inputs":[{"name":"user","type":"address","indexed":true,"internalType":"address"},{"name":"epochId","type":"uint256","indexed":true,"internalType":"uint256"},{"name":"amount","type":"uint256","indexed":false,"internalType":"uint256"}],"anonymous":false},{"type":"event","name":"DistributionStarted","inputs":[{"name":"startTime","type":"uint256","indexed":false,"internalType":"uint256"}],"anonymous":false},{"type":"event","name":"EpochFinalized","inputs":[{"name":"epochId","type":"uint256","indexed":true,"internalType":"uint256"},{"name":"totalEmission","type":"uint256","indexed":false,"internalType":"uint256"},{"name":"snapshotWeight","type":"uint256","indexed":false,"internalType":"uint256"}],"anonymous":false},{"type":"error","name":"AlreadyClaimed","inputs":[]},{"type":"error","name":"EpochNotFinalized","inputs":[]},{"type":"error","name":"NoEmissionsAvailable","inputs":[]},{"type":"error","name":"NoWeight","inputs":[]},{"type":"error","name":"Unauthorized","inputs":[]}],"bytecode":{"object":"0x61010060405234801562000011575f80fd5b5060405162001e1a38038062001e1a833981810160405281019062000037919062000348565b5f73ffffffffffffffffffffffffffffffffffffffff168473ffffffffffffffffffffffffffffffffffffffff1614806200009d57505f73ffffffffffffffffffffffffffffffffffffffff168373ffffffffffffffffffffffffffffffffffffffff16145b80620000d457505f73ffffffffffffffffffffffffffffffffffffffff168273ffffffffffffffffffffffffffffffffffffffff16145b806200010b57505f73ffffffffffffffffffffffffffffffffffffffff168173ffffffffffffffffffffffffffffffffffffffff16145b1562000143576040517f82b4290000000000000000000000000000000000000000000000000000000000815260040160405180910390fd5b8373ffffffffffffffffffffffffffffffffffffffff1660808173ffffffffffffffffffffffffffffffffffffffff16815250508273ffffffffffffffffffffffffffffffffffffffff1660a08173ffffffffffffffffffffffffffffffffffffffff16815250508173ffffffffffffffffffffffffffffffffffffffff1660c08173ffffffffffffffffffffffffffffffffffffffff16815250508073ffffffffffffffffffffffffffffffffffffffff1660e08173ffffffffffffffffffffffffffffffffffffffff168152505050505050620003b7565b5f80fd5b5f73ffffffffffffffffffffffffffffffffffffffff82169050919050565b5f6200024c8262000221565b9050919050565b6200025e8162000240565b811462000269575f80fd5b50565b5f815190506200027c8162000253565b92915050565b5f6200028e8262000240565b9050919050565b620002a08162000282565b8114620002ab575f80fd5b50565b5f81519050620002be8162000295565b92915050565b5f620002d08262000240565b9050919050565b620002e281620002c4565b8114620002ed575f80fd5b50565b5f815190506200030081620002d7565b92915050565b5f620003128262000240565b9050919050565b620003248162000306565b81146200032f575f80fd5b50565b5f81519050620003428162000319565b92915050565b5f805f80608085870312156200036357620003626200021d565b5b5f62000372878288016200026c565b94505060206200038587828801620002ae565b93505060406200039887828801620002f0565b9250506060620003ab8782880162000332565b91505092959194509250565b60805160a05160c05160e0516119f06200042a5f395f8181610a2b015261124c01525f818161051b0152818161085101528181610af501528181610dae01528181611114015261136e01525f81816103df015281816106730152610edc01525f8181610c99015261127001526119f05ff3fe608060405234801561000f575f80fd5b506004361061011f575f3560e01c80639051cce9116100ab578063c6b61e4c1161006f578063c6b61e4c1461030b578063d1ad17bf1461033d578063d83623dd1461035b578063fbfa77cf14610365578063ff6ad927146103835761011f565b80639051cce914610253578063a70b9f0c1461026f578063b29310961461028d578063b3743f60146102bd578063b97dd9e2146102ed5761011f565b80636fc92550116100f25780636fc92550146101ab57806382ae9ef7146101db578063859e7d32146101e55780638da5cb5b146102175780638da859b0146102355761011f565b8063120aa877146101235780632b7c26e314610153578063379607f5146101715780636a71e62b1461018d575b5f80fd5b61013d6004803603810190610138919061143a565b6103b3565b60405161014a9190611492565b60405180910390f35b61015b6103dd565b6040516101689190611506565b60405180910390f35b61018b6004803603810190610186919061151f565b610401565b005b61019561074e565b6040516101a29190611559565b60405180910390f35b6101c560048036038101906101c091906115d3565b610754565b6040516101d29190611559565b60405180910390f35b6101e3610942565b005b6101ff60048036038101906101fa919061151f565b610c2c565b60405161020e93929190611630565b60405180910390f35b61021f610c97565b60405161022c9190611674565b60405180910390f35b61023d610cbb565b60405161024a9190611559565b60405180910390f35b61026d6004803603810190610268919061168d565b610cc0565b005b610277610fce565b6040516102849190611559565b60405180910390f35b6102a760048036038101906102a291906116d8565b610fd5565b6040516102b49190611492565b60405180910390f35b6102d760048036038101906102d291906116d8565b611037565b6040516102e49190611559565b60405180910390f35b6102f56111e6565b6040516103029190611559565b60405180910390f35b6103256004803603810190610320919061151f565b611218565b60405161033493929190611630565b60405180910390f35b61034561124a565b6040516103529190611736565b60405180910390f35b61036361126e565b005b61036d61136c565b60405161037a919061176f565b60405180910390f35b61039d6004803603810190610398919061151f565b611390565b6040516103aa9190611559565b60405180910390f35b6003602052815f5260405f20602052805f5260405f205f915091509054906101000a900460ff1681565b7f000000000000000000000000000000000000000000000000000000000000000081565b5f60025f8381526020019081526020015f206040518060600160405290815f820154815260200160018201548152602001600282015f9054906101000a900460ff16151515158152505090508060400151610488576040517f8cf7570700000000000000000000000000000000000000000000000000000000815260040160405180910390fd5b60035f8381526020019081526020015f205f3373ffffffffffffffffffffffffffffffffffffffff1673ffffffffffffffffffffffffffffffffffffffff1681526020019081526020015f205f9054906101000a900460ff1615610518576040517f646cf55800000000000000000000000000000000000000000000000000000000815260040160405180910390fd5b5f7f000000000000000000000000000000000000000000000000000000000000000073ffffffffffffffffffffffffffffffffffffffff166314d8a8b3336040518263ffffffff1660e01b81526004016105729190611674565b602060405180830381865afa15801561058d573d5f803e3d5ffd5b505050506040513d601f19601f820116820180604052508101906105b1919061179c565b90505f81036105ec576040517f4402310500000000000000000000000000000000000000000000000000000000815260040160405180910390fd5b5f826020015182845f015161060191906117f4565b61060b9190611862565b9050600160035f8681526020019081526020015f205f3373ffffffffffffffffffffffffffffffffffffffff1673ffffffffffffffffffffffffffffffffffffffff1681526020019081526020015f205f6101000a81548160ff0219169083151502179055507f000000000000000000000000000000000000000000000000000000000000000073ffffffffffffffffffffffffffffffffffffffff166340c10f1933836040518363ffffffff1660e01b81526004016106cc929190611892565b5f604051808303815f87803b1580156106e3575f80fd5b505af11580156106f5573d5f803e3d5ffd5b50505050833373ffffffffffffffffffffffffffffffffffffffff167f987d620f307ff6b94d58743cb7a7509f24071586a77759b77c2d4e29f75a2f9a836040516107409190611559565b60405180910390a350505050565b60015481565b5f805f90505b8383905081101561093a575f848483818110610779576107786118b9565b5b9050602002013590505f60025f8381526020019081526020015f206040518060600160405290815f820154815260200160018201548152602001600282015f9054906101000a900460ff161515151581525050905080604001511580610834575060035f8381526020019081526020015f205f8873ffffffffffffffffffffffffffffffffffffffff1673ffffffffffffffffffffffffffffffffffffffff1681526020019081526020015f205f9054906101000a900460ff165b8061084257505f8160200151145b1561084e575050610927565b5f7f000000000000000000000000000000000000000000000000000000000000000073ffffffffffffffffffffffffffffffffffffffff166314d8a8b3896040518263ffffffff1660e01b81526004016108a89190611674565b602060405180830381865afa1580156108c3573d5f803e3d5ffd5b505050506040513d601f19601f820116820180604052508101906108e7919061179c565b90505f81036108f857505050610927565b816020015181835f015161090c91906117f4565b6109169190611862565b8561092191906118e6565b94505050505b808061093290611919565b91505061075a565b509392505050565b5f80540361097c576040517f82b4290000000000000000000000000000000000000000000000000000000000815260040160405180910390fd5b5f6109856111e6565b90505f81036109c0576040517f8cf7570700000000000000000000000000000000000000000000000000000000815260040160405180910390fd5b5f6001826109ce9190611960565b905060025f8281526020019081526020015f206002015f9054906101000a900460ff1615610a28576040517f8cf7570700000000000000000000000000000000000000000000000000000000815260040160405180910390fd5b5f7f000000000000000000000000000000000000000000000000000000000000000073ffffffffffffffffffffffffffffffffffffffff1663313310ad6040518163ffffffff1660e01b81526004016020604051808303815f875af1158015610a93573d5f803e3d5ffd5b505050506040513d601f19601f82011682018060405250810190610ab7919061179c565b90505f8103610af2576040517fe394f80b00000000000000000000000000000000000000000000000000000000815260040160405180910390fd5b5f7f000000000000000000000000000000000000000000000000000000000000000073ffffffffffffffffffffffffffffffffffffffff1663f4ec82eb6040518163ffffffff1660e01b8152600401602060405180830381865afa158015610b5c573d5f803e3d5ffd5b505050506040513d601f19601f82011682018060405250810190610b80919061179c565b905060405180606001604052808381526020018281526020016001151581525060025f8581526020019081526020015f205f820151815f0155602082015181600101556040820151816002015f6101000a81548160ff02191690831515021790555090505082600181905550827fb463d19ecf455be65365092cf8e1db6934a0334cf8cd532ddf9964d01f36b5b28383604051610c1e929190611993565b60405180910390a250505050565b5f805f8060025f8681526020019081526020015f206040518060600160405290815f820154815260200160018201548152602001600282015f9054906101000a900460ff1615151515815250509050805f015181602001518260400151935093509350509193909250565b7f000000000000000000000000000000000000000000000000000000000000000081565b5f5481565b5f5b82829050811015610fc9575f838383818110610ce157610ce06118b9565b5b9050602002013590505f60025f8381526020019081526020015f206040518060600160405290815f820154815260200160018201548152602001600282015f9054906101000a900460ff16151515158152505090508060400151610d46575050610fb6565b60035f8381526020019081526020015f205f3373ffffffffffffffffffffffffffffffffffffffff1673ffffffffffffffffffffffffffffffffffffffff1681526020019081526020015f205f9054906101000a900460ff1615610dab575050610fb6565b5f7f000000000000000000000000000000000000000000000000000000000000000073ffffffffffffffffffffffffffffffffffffffff166314d8a8b3336040518263ffffffff1660e01b8152600401610e059190611674565b602060405180830381865afa158015610e20573d5f803e3d5ffd5b505050506040513d601f19601f82011682018060405250810190610e44919061179c565b90505f8103610e5557505050610fb6565b5f826020015182845f0151610e6a91906117f4565b610e749190611862565b9050600160035f8681526020019081526020015f205f3373ffffffffffffffffffffffffffffffffffffffff1673ffffffffffffffffffffffffffffffffffffffff1681526020019081526020015f205f6101000a81548160ff0219169083151502179055507f000000000000000000000000000000000000000000000000000000000000000073ffffffffffffffffffffffffffffffffffffffff166340c10f1933836040518363ffffffff1660e01b8152600401610f35929190611892565b5f604051808303815f87803b158015610f4c575f80fd5b505af1158015610f5e573d5f803e3d5ffd5b50505050833373ffffffffffffffffffffffffffffffffffffffff167f987d620f307ff6b94d58743cb7a7509f24071586a77759b77c2d4e29f75a2f9a83604051610fa99190611559565b60405180910390a3505050505b8080610fc190611919565b915050610cc2565b505050565b62093a8081565b5f60035f8381526020019081526020015f205f8473ffffffffffffffffffffffffffffffffffffffff1673ffffffffffffffffffffffffffffffffffffffff1681526020019081526020015f205f9054906101000a900460ff16905092915050565b5f8060025f8481526020019081526020015f206040518060600160405290815f820154815260200160018201548152602001600282015f9054906101000a900460ff16151515158152505090508060400151611096575f9150506111e0565b60035f8481526020019081526020015f205f8573ffffffffffffffffffffffffffffffffffffffff1673ffffffffffffffffffffffffffffffffffffffff1681526020019081526020015f205f9054906101000a900460ff16156110fd575f9150506111e0565b5f816020015103611111575f9150506111e0565b5f7f000000000000000000000000000000000000000000000000000000000000000073ffffffffffffffffffffffffffffffffffffffff166314d8a8b3866040518263ffffffff1660e01b815260040161116b9190611674565b602060405180830381865afa158015611186573d5f803e3d5ffd5b505050506040513d601f19601f820116820180604052508101906111aa919061179c565b90505f81036111bd575f925050506111e0565b816020015181835f01516111d191906117f4565b6111db9190611862565b925050505b92915050565b5f805f54036111f7575f9050611215565b62093a805f54426112089190611960565b6112129190611862565b90505b90565b6002602052805f5260405f205f91509050805f015490806001015490806002015f9054906101000a900460ff16905083565b7f000000000000000000000000000000000000000000000000000000000000000081565b7f000000000000000000000000000000000000000000000000000000000000000073ffffffffffffffffffffffffffffffffffffffff163373ffffffffffffffffffffffffffffffffffffffff16146112f3576040517f82b4290000000000000000000000000000000000000000000000000000000000815260040160405180910390fd5b5f80541461132d576040517f82b4290000000000000000000000000000000000000000000000000000000000815260040160405180910390fd5b425f819055507f46f46cd39c3d6f99f1d4603ebdeecb06ac02e1c3ef0cc20a8fe5aedaf472d853426040516113629190611559565b60405180910390a1565b7f000000000000000000000000000000000000000000000000000000000000000081565b6004602052805f5260405f205f915090505481565b5f80fd5b5f80fd5b5f819050919050565b6113bf816113ad565b81146113c9575f80fd5b50565b5f813590506113da816113b6565b92915050565b5f73ffffffffffffffffffffffffffffffffffffffff82169050919050565b5f611409826113e0565b9050919050565b611419816113ff565b8114611423575f80fd5b50565b5f8135905061143481611410565b92915050565b5f80604083850312156114505761144f6113a5565b5b5f61145d858286016113cc565b925050602061146e85828601611426565b9150509250929050565b5f8115159050919050565b61148c81611478565b82525050565b5f6020820190506114a55f830184611483565b92915050565b5f819050919050565b5f6114ce6114c96114c4846113e0565b6114ab565b6113e0565b9050919050565b5f6114df826114b4565b9050919050565b5f6114f0826114d5565b9050919050565b611500816114e6565b82525050565b5f6020820190506115195f8301846114f7565b92915050565b5f60208284031215611534576115336113a5565b5b5f611541848285016113cc565b91505092915050565b611553816113ad565b82525050565b5f60208201905061156c5f83018461154a565b92915050565b5f80fd5b5f80fd5b5f80fd5b5f8083601f84011261159357611592611572565b5b8235905067ffffffffffffffff8111156115b0576115af611576565b5b6020830191508360208202830111156115cc576115cb61157a565b5b9250929050565b5f805f604084860312156115ea576115e96113a5565b5b5f6115f786828701611426565b935050602084013567ffffffffffffffff811115611618576116176113a9565b5b6116248682870161157e565b92509250509250925092565b5f6060820190506116435f83018661154a565b611650602083018561154a565b61165d6040830184611483565b949350505050565b61166e816113ff565b82525050565b5f6020820190506116875f830184611665565b92915050565b5f80602083850312156116a3576116a26113a5565b5b5f83013567ffffffffffffffff8111156116c0576116bf6113a9565b5b6116cc8582860161157e565b92509250509250929050565b5f80604083850312156116ee576116ed6113a5565b5b5f6116fb85828601611426565b925050602061170c858286016113cc565b9150509250929050565b5f611720826114d5565b9050919050565b61173081611716565b82525050565b5f6020820190506117495f830184611727565b92915050565b5f611759826114d5565b9050919050565b6117698161174f565b82525050565b5f6020820190506117825f830184611760565b92915050565b5f81519050611796816113b6565b92915050565b5f602082840312156117b1576117b06113a5565b5b5f6117be84828501611788565b91505092915050565b7f4e487b71000000000000000000000000000000000000000000000000000000005f52601160045260245ffd5b5f6117fe826113ad565b9150611809836113ad565b9250828202611817816113ad565b9150828204841483151761182e5761182d6117c7565b5b5092915050565b7f4e487b71000000000000000000000000000000000000000000000000000000005f52601260045260245ffd5b5f61186c826113ad565b9150611877836113ad565b92508261188757611886611835565b5b828204905092915050565b5f6040820190506118a55f830185611665565b6118b2602083018461154a565b9392505050565b7f4e487b71000000000000000000000000000000000000000000000000000000005f52603260045260245ffd5b5f6118f0826113ad565b91506118fb836113ad565b9250828201905080821115611913576119126117c7565b5b92915050565b5f611923826113ad565b91507fffffffffffffffffffffffffffffffffffffffffffffffffffffffffffffffff8203611955576119546117c7565b5b600182019050919050565b5f61196a826113ad565b9150611975836113ad565b925082820390508181111561198d5761198c6117c7565b5b92915050565b5f6040820190506119a65f83018561154a565b6119b3602083018461154a565b939250505056fea2646970667358221220be370489ca8b28a3c7d6d8630519cc65f344374b81909c768d1fd7b235d828d064736f6c63430008140033","linkReferences":{}},"methodIdentifiers":{"EPOCH_DURATION()":"a70b9f0c","claim(uint256)":"379607f5","claimMultiple(uint256[])":"9051cce9","claimed(uint256,address)":"120aa877","claimedTotal(uint256)":"ff6ad927","distributionStartTime()":"8da859b0","dmdToken()":"2b7c26e3","epochs(uint256)":"c6b61e4c","finalizeEpoch()":"82ae9ef7","getClaimableAmount(address,uint256)":"b3743f60","getCurrentEpoch()":"b97dd9e2","getEpochData(uint256)":"859e7d32","getTotalClaimable(address,uint256[])":"6fc92550","hasClaimed(address,uint256)":"b2931096","lastClaimEpoch()":"6a71e62b","owner()":"8da5cb5b","scheduler()":"d1ad17bf","startDistribution()":"d83623dd","vault()":"fbfa77cf"},"id":22}