{"abi":[{"type":"constructor","inputs":[{"name":"_dmdToken","type":"address","internalType":"contract IDMDToken"},{"name":"_vault","type":"address","internalType":"contract IBTCReserveVault"}],"stateMutability":"nonpayable"},{"type":"function","name":"dmdToken","inputs":[],"outputs":[{"name":"","type":"address","internalType":"contract IDMDToken"}],"stateMutability":"view"},{"type":"function","name":"getRequiredBurn","inputs":[{"name":"user","type":"address","internalType":"address"},{"name":"positionId","type":"uint256","internalType":"uint256"}],"outputs":[{"name":"","type":"uint256","internalType":"uint256"}],"stateMutability":"view"},{"type":"function","name":"getUserRedemptionStats","inputs":[{"name":"user","type":"address","internalType":"address"}],"outputs":[{"name":"totalBurned","type":"uint256","internalType":"uint256"},{"name":"currentDMDBalance","type":"uint256","internalType":"uint256"}],"stateMutability":"view"},{"type":"function","name":"isRedeemable","inputs":[{"name":"user","type":"address","internalType":"address"},{"name":"positionId","type":"uint256","internalType":"uint256"}],"outputs":[{"name":"","type":"bool","internalType":"bool"}],"stateMutability":"view"},{"type":"function","name":"isRedeemed","inputs":[{"name":"user","type":"address","internalType":"address"},{"name":"positionId","type":"uint256","internalType":"uint256"}],"outputs":[{"name":"","type":"bool","internalType":"bool"}],"stateMutability":"view"},{"type":"function","name":"redeem","inputs":[{"name":"positionId","type":"uint256","internalType":"uint256"},{"name":"dmdAmount","type":"uint256","internalType":"uint256"}],"outputs":[],"stateMutability":"nonpayable"},{"type":"function","name":"redeemMultiple","inputs":[{"name":"positionIds","type":"uint256[]","internalType":"uint256[]"},{"name":"dmdAmounts","type":"uint256[]","internalType":"uint256[]"}],"outputs":[],"stateMutability":"nonpayable"},{"type":"function","name":"redeemed","inputs":[{"name":"","type":"address","internalType":"address"},{"name":"","type":"uint256","internalType":"uint256"}],"outputs":[{"name":"","type":"bool","internalType":"bool"}],"stateMutability":"view"},{"type":"function","name":"totalBurnedByUser","inputs":[{"name":"","type":"address","internalType":"address"}],"outputs":[{"name":"","type":"uint256","internalType":"uint256"}],"stateMutability":"view"},{"type":"function","name":"vault","inputs":[],"outputs":[{"name":"","type":"address","internalType":"contract IBTCReserveVault"}],"stateMutability":"view"},{"type":"event","name":"Redeemed","inputs":[{"name":"user","type":"address","indexed":true,"internalType":"address"},{"name":"positionId","type":"uint256","indexed":true,"internalType":"uint256"},{"name":"wbtcAmount","type":"uint256","indexed":false,"internalType":"uint256"},{"name":"dmdBurned","type":"uint256","indexed":false,"internalType":"uint256"}],"anonymous":false},{"type":"error","name":"AlreadyRedeemed","inputs":[]},{"type":"error","name":"InsufficientDMD","inputs":[]},{"type":"error","name":"InvalidAmount","inputs":[]},{"type":"error","name":"PositionLocked","inputs":[]},{"type":"error","name":"PositionNotFound","inputs":[]}],"bytecode":{"object":"0x60c060405234801562000010575f80fd5b5060405162001a9c38038062001a9c8339818101604052810190620000369190620001fe565b5f73ffffffffffffffffffffffffffffffffffffffff168273ffffffffffffffffffffffffffffffffffffffff1614806200009c57505f73ffffffffffffffffffffffffffffffffffffffff168173ffffffffffffffffffffffffffffffffffffffff16145b15620000d4576040517f2c5211c600000000000000000000000000000000000000000000000000000000815260040160405180910390fd5b8173ffffffffffffffffffffffffffffffffffffffff1660808173ffffffffffffffffffffffffffffffffffffffff16815250508073ffffffffffffffffffffffffffffffffffffffff1660a08173ffffffffffffffffffffffffffffffffffffffff1681525050505062000243565b5f80fd5b5f73ffffffffffffffffffffffffffffffffffffffff82169050919050565b5f620001738262000148565b9050919050565b5f620001868262000167565b9050919050565b62000198816200017a565b8114620001a3575f80fd5b50565b5f81519050620001b6816200018d565b92915050565b5f620001c88262000167565b9050919050565b620001da81620001bc565b8114620001e5575f80fd5b50565b5f81519050620001f881620001cf565b92915050565b5f806040838503121562000217576200021662000144565b5b5f6200022685828601620001a6565b92505060206200023985828601620001e8565b9150509250929050565b60805160a0516117ce620002ce5f395f818161025e015281816103e6015281816104c0015281816107a40152818161097e01528181610a2f01528181610b5801528181610f900152818161104201526111c901525f8181610237015281816106800152818161071e01528181610ca501528181610d4301528181610e8701526110eb01526117ce5ff3fe608060405234801561000f575f80fd5b506004361061009c575f3560e01c8063cb4659af11610064578063cb4659af14610156578063d0a825f714610186578063d2b279fc146101b7578063df6a6b38146101e7578063fbfa77cf146102175761009c565b80632b7c26e3146100a057806372f90f05146100be5780637cbc2373146100ee5780639344a06d1461010a578063a605928614610126575b5f80fd5b6100a8610235565b6040516100b59190611265565b60405180910390f35b6100d860048036038101906100d391906112f4565b610259565b6040516100e59190611341565b60405180910390f35b6101086004803603810190610103919061135a565b61031a565b005b610124600480360381019061011f91906113f9565b610881565b005b610140600480360381019061013b9190611477565b610dcf565b60405161014d9190611341565b60405180910390f35b610170600480360381019061016b91906112f4565b610de4565b60405161017d91906114bc565b60405180910390f35b6101a0600480360381019061019b9190611477565b610e45565b6040516101ae9291906114d5565b60405180910390f35b6101d160048036038101906101cc91906112f4565b610f26565b6040516101de91906114bc565b60405180910390f35b61020160048036038101906101fc91906112f4565b61119e565b60405161020e91906114bc565b60405180910390f35b61021f6111c7565b60405161022c919061151c565b60405180910390f35b7f000000000000000000000000000000000000000000000000000000000000000081565b5f805f7f000000000000000000000000000000000000000000000000000000000000000073ffffffffffffffffffffffffffffffffffffffff16633adbb5af86866040518363ffffffff1660e01b81526004016102b7929190611544565b60a060405180830381865afa1580156102d2573d5f803e3d5ffd5b505050506040513d601f19601f820116820180604052508101906102f6919061157f565b509350505091505f820361030e575f92505050610314565b80925050505b92915050565b5f8103610353576040517f2c5211c600000000000000000000000000000000000000000000000000000000815260040160405180910390fd5b5f803373ffffffffffffffffffffffffffffffffffffffff1673ffffffffffffffffffffffffffffffffffffffff1681526020019081526020015f205f8381526020019081526020015f205f9054906101000a900460ff16156103e2576040517f1b4e0c3c00000000000000000000000000000000000000000000000000000000815260040160405180910390fd5b5f807f000000000000000000000000000000000000000000000000000000000000000073ffffffffffffffffffffffffffffffffffffffff16633adbb5af33866040518363ffffffff1660e01b815260040161043f929190611544565b60a060405180830381865afa15801561045a573d5f803e3d5ffd5b505050506040513d601f19601f8201168201806040525081019061047e919061157f565b509350505091505f82036104be576040517f6ec9be1100000000000000000000000000000000000000000000000000000000815260040160405180910390fd5b7f000000000000000000000000000000000000000000000000000000000000000073ffffffffffffffffffffffffffffffffffffffff166330dbb4e433866040518363ffffffff1660e01b8152600401610519929190611544565b602060405180830381865afa158015610534573d5f803e3d5ffd5b505050506040513d601f19601f820116820180604052508101906105589190611620565b61058e576040517fc7d26d7200000000000000000000000000000000000000000000000000000000815260040160405180910390fd5b808310156105c8576040517ff5696ee100000000000000000000000000000000000000000000000000000000815260040160405180910390fd5b60015f803373ffffffffffffffffffffffffffffffffffffffff1673ffffffffffffffffffffffffffffffffffffffff1681526020019081526020015f205f8681526020019081526020015f205f6101000a81548160ff0219169083151502179055508260015f3373ffffffffffffffffffffffffffffffffffffffff1673ffffffffffffffffffffffffffffffffffffffff1681526020019081526020015f205f8282546106779190611678565b925050819055507f000000000000000000000000000000000000000000000000000000000000000073ffffffffffffffffffffffffffffffffffffffff166323b872dd3330866040518463ffffffff1660e01b81526004016106db939291906116ab565b6020604051808303815f875af11580156106f7573d5f803e3d5ffd5b505050506040513d601f19601f8201168201806040525081019061071b9190611620565b507f000000000000000000000000000000000000000000000000000000000000000073ffffffffffffffffffffffffffffffffffffffff166342966c68846040518263ffffffff1660e01b81526004016107759190611341565b5f604051808303815f87803b15801561078c575f80fd5b505af115801561079e573d5f803e3d5ffd5b505050507f000000000000000000000000000000000000000000000000000000000000000073ffffffffffffffffffffffffffffffffffffffff16631e9a695033866040518363ffffffff1660e01b81526004016107fd929190611544565b5f604051808303815f87803b158015610814575f80fd5b505af1158015610826573d5f803e3d5ffd5b50505050833373ffffffffffffffffffffffffffffffffffffffff167f484c40561359f3e3b8be9101897f8680aa82fbe1df9fd9038e0dbc628403264684866040516108739291906114d5565b60405180910390a350505050565b8181905084849050146108c0576040517f2c5211c600000000000000000000000000000000000000000000000000000000815260040160405180910390fd5b5f805b85859050811015610c47575f8686838181106108e2576108e16116e0565b5b9050602002013590505f8585848181106108ff576108fe6116e0565b5b9050602002013590505f8103610916575050610c34565b5f803373ffffffffffffffffffffffffffffffffffffffff1673ffffffffffffffffffffffffffffffffffffffff1681526020019081526020015f205f8381526020019081526020015f205f9054906101000a900460ff161561097a575050610c34565b5f807f000000000000000000000000000000000000000000000000000000000000000073ffffffffffffffffffffffffffffffffffffffff16633adbb5af33866040518363ffffffff1660e01b81526004016109d7929190611544565b60a060405180830381865afa1580156109f2573d5f803e3d5ffd5b505050506040513d601f19601f82011682018060405250810190610a16919061157f565b509350505091505f8203610a2d5750505050610c34565b7f000000000000000000000000000000000000000000000000000000000000000073ffffffffffffffffffffffffffffffffffffffff166330dbb4e433866040518363ffffffff1660e01b8152600401610a88929190611544565b602060405180830381865afa158015610aa3573d5f803e3d5ffd5b505050506040513d601f19601f82011682018060405250810190610ac79190611620565b610ad45750505050610c34565b80831015610ae55750505050610c34565b60015f803373ffffffffffffffffffffffffffffffffffffffff1673ffffffffffffffffffffffffffffffffffffffff1681526020019081526020015f205f8681526020019081526020015f205f6101000a81548160ff0219169083151502179055508286610b549190611678565b95507f000000000000000000000000000000000000000000000000000000000000000073ffffffffffffffffffffffffffffffffffffffff16631e9a695033866040518363ffffffff1660e01b8152600401610bb1929190611544565b5f604051808303815f87803b158015610bc8575f80fd5b505af1158015610bda573d5f803e3d5ffd5b50505050833373ffffffffffffffffffffffffffffffffffffffff167f484c40561359f3e3b8be9101897f8680aa82fbe1df9fd9038e0dbc62840326468486604051610c279291906114d5565b60405180910390a3505050505b8080610c3f9061170d565b9150506108c3565b505f811115610dc8578060015f3373ffffffffffffffffffffffffffffffffffffffff1673ffffffffffffffffffffffffffffffffffffffff1681526020019081526020015f205f828254610c9c9190611678565b925050819055507f000000000000000000000000000000000000000000000000000000000000000073ffffffffffffffffffffffffffffffffffffffff166323b872dd3330846040518463ffffffff1660e01b8152600401610d00939291906116ab565b6020604051808303815f875af1158015610d1c573d5f803e3d5ffd5b505050506040513d601f19601f82011682018060405250810190610d409190611620565b507f000000000000000000000000000000000000000000000000000000000000000073ffffffffffffffffffffffffffffffffffffffff166342966c68826040518263ffffffff1660e01b8152600401610d9a9190611341565b5f604051808303815f87803b158015610db1575f80fd5b505af1158015610dc3573d5f803e3d5ffd5b505050505b5050505050565b6001602052805f5260405f205f915090505481565b5f805f8473ffffffffffffffffffffffffffffffffffffffff1673ffffffffffffffffffffffffffffffffffffffff1681526020019081526020015f205f8381526020019081526020015f205f9054906101000a900460ff16905092915050565b5f8060015f8473ffffffffffffffffffffffffffffffffffffffff1673ffffffffffffffffffffffffffffffffffffffff1681526020019081526020015f20547f000000000000000000000000000000000000000000000000000000000000000073ffffffffffffffffffffffffffffffffffffffff166370a08231856040518263ffffffff1660e01b8152600401610ede9190611754565b602060405180830381865afa158015610ef9573d5f803e3d5ffd5b505050506040513d601f19601f82011682018060405250810190610f1d919061176d565b91509150915091565b5f805f8473ffffffffffffffffffffffffffffffffffffffff1673ffffffffffffffffffffffffffffffffffffffff1681526020019081526020015f205f8381526020019081526020015f205f9054906101000a900460ff1615610f8c575f9050611198565b5f807f000000000000000000000000000000000000000000000000000000000000000073ffffffffffffffffffffffffffffffffffffffff16633adbb5af86866040518363ffffffff1660e01b8152600401610fe9929190611544565b60a060405180830381865afa158015611004573d5f803e3d5ffd5b505050506040513d601f19601f82011682018060405250810190611028919061157f565b509350505091505f8203611040575f92505050611198565b7f000000000000000000000000000000000000000000000000000000000000000073ffffffffffffffffffffffffffffffffffffffff166330dbb4e486866040518363ffffffff1660e01b815260040161109b929190611544565b602060405180830381865afa1580156110b6573d5f803e3d5ffd5b505050506040513d601f19601f820116820180604052508101906110da9190611620565b6110e8575f92505050611198565b807f000000000000000000000000000000000000000000000000000000000000000073ffffffffffffffffffffffffffffffffffffffff166370a08231876040518263ffffffff1660e01b81526004016111429190611754565b602060405180830381865afa15801561115d573d5f803e3d5ffd5b505050506040513d601f19601f82011682018060405250810190611181919061176d565b1015611191575f92505050611198565b6001925050505b92915050565b5f602052815f5260405f20602052805f5260405f205f915091509054906101000a900460ff1681565b7f000000000000000000000000000000000000000000000000000000000000000081565b5f73ffffffffffffffffffffffffffffffffffffffff82169050919050565b5f819050919050565b5f61122d611228611223846111eb565b61120a565b6111eb565b9050919050565b5f61123e82611213565b9050919050565b5f61124f82611234565b9050919050565b61125f81611245565b82525050565b5f6020820190506112785f830184611256565b92915050565b5f80fd5b5f80fd5b5f611290826111eb565b9050919050565b6112a081611286565b81146112aa575f80fd5b50565b5f813590506112bb81611297565b92915050565b5f819050919050565b6112d3816112c1565b81146112dd575f80fd5b50565b5f813590506112ee816112ca565b92915050565b5f806040838503121561130a5761130961127e565b5b5f611317858286016112ad565b9250506020611328858286016112e0565b9150509250929050565b61133b816112c1565b82525050565b5f6020820190506113545f830184611332565b92915050565b5f80604083850312156113705761136f61127e565b5b5f61137d858286016112e0565b925050602061138e858286016112e0565b9150509250929050565b5f80fd5b5f80fd5b5f80fd5b5f8083601f8401126113b9576113b8611398565b5b8235905067ffffffffffffffff8111156113d6576113d561139c565b5b6020830191508360208202830111156113f2576113f16113a0565b5b9250929050565b5f805f80604085870312156114115761141061127e565b5b5f85013567ffffffffffffffff81111561142e5761142d611282565b5b61143a878288016113a4565b9450945050602085013567ffffffffffffffff81111561145d5761145c611282565b5b611469878288016113a4565b925092505092959194509250565b5f6020828403121561148c5761148b61127e565b5b5f611499848285016112ad565b91505092915050565b5f8115159050919050565b6114b6816114a2565b82525050565b5f6020820190506114cf5f8301846114ad565b92915050565b5f6040820190506114e85f830185611332565b6114f56020830184611332565b9392505050565b5f61150682611234565b9050919050565b611516816114fc565b82525050565b5f60208201905061152f5f83018461150d565b92915050565b61153e81611286565b82525050565b5f6040820190506115575f830185611535565b6115646020830184611332565b9392505050565b5f81519050611579816112ca565b92915050565b5f805f805f60a086880312156115985761159761127e565b5b5f6115a58882890161156b565b95505060206115b68882890161156b565b94505060406115c78882890161156b565b93505060606115d88882890161156b565b92505060806115e98882890161156b565b9150509295509295909350565b6115ff816114a2565b8114611609575f80fd5b50565b5f8151905061161a816115f6565b92915050565b5f602082840312156116355761163461127e565b5b5f6116428482850161160c565b91505092915050565b7f4e487b71000000000000000000000000000000000000000000000000000000005f52601160045260245ffd5b5f611682826112c1565b915061168d836112c1565b92508282019050808211156116a5576116a461164b565b5b92915050565b5f6060820190506116be5f830186611535565b6116cb6020830185611535565b6116d86040830184611332565b949350505050565b7f4e487b71000000000000000000000000000000000000000000000000000000005f52603260045260245ffd5b5f611717826112c1565b91507fffffffffffffffffffffffffffffffffffffffffffffffffffffffffffffffff82036117495761174861164b565b5b600182019050919050565b5f6020820190506117675f830184611535565b92915050565b5f602082840312156117825761178161127e565b5b5f61178f8482850161156b565b9150509291505056fea2646970667358221220ca5557189b0fed8374a30bfb1eb1ce9bb09b993ad9e9fc96f5b590925a234bc664736f6c63430008140033","linkReferences":{}},"methodIdentifiers":{"dmdToken()":"2b7c26e3","getRequiredBurn(address,uint256)":"72f90f05","getUserRedemptionStats(address)":"d0a825f7","isRedeemable(address,uint256)":"d2b279fc","isRedeemed(address,uint256)":"cb4659af","redeem(uint256,uint256)":"7cbc2373","redeemMultiple(uint256[],uint256[])":"9344a06d","redeemed(address,uint256)":"df6a6b38","totalBurnedByUser(address)":"a6059286","vault()":"fbfa77cf"},"id":23}