{"abi":[{"type":"constructor","inputs":[{"name":"_owner","type":"address","internalType":"address"},{"name":"_mintDistributor","type":"address","internalType":"address"}],"stateMutability":"nonpayable"},{"type":"function","name":"DECAY_DENOMINATOR","inputs":[],"outputs":[{"name":"","type":"uint256","internalType":"uint256"}],"stateMutability":"view"},{"type":"function","name":"DECAY_NUMERATOR","inputs":[],"outputs":[{"name":"","type":"uint256","internalType":"uint256"}],"stateMutability":"view"},{"type":"function","name":"EMISSION_CAP","inputs":[],"outputs":[{"name":"","type":"uint256","internalType":"uint256"}],"stateMutability":"view"},{"type":"function","name":"SECONDS_PER_YEAR","inputs":[],"outputs":[{"name":"","type":"uint256","internalType":"uint256"}],"stateMutability":"view"},{"type":"function","name":"YEAR_1_EMISSION","inputs":[],"outputs":[{"name":"","type":"uint256","internalType":"uint256"}],"stateMutability":"view"},{"type":"function","name":"capReached","inputs":[],"outputs":[{"name":"","type":"bool","internalType":"bool"}],"stateMutability":"view"},{"type":"function","name":"claimEmission","inputs":[],"outputs":[{"name":"amount","type":"uint256","internalType":"uint256"}],"stateMutability":"nonpayable"},{"type":"function","name":"claimableNow","inputs":[],"outputs":[{"name":"","type":"uint256","internalType":"uint256"}],"stateMutability":"view"},{"type":"function","name":"currentEmissionRate","inputs":[],"outputs":[{"name":"","type":"uint256","internalType":"uint256"}],"stateMutability":"view"},{"type":"function","name":"emissionStartTime","inputs":[],"outputs":[{"name":"","type":"uint256","internalType":"uint256"}],"stateMutability":"view"},{"type":"function","name":"getCurrentYear","inputs":[],"outputs":[{"name":"","type":"uint256","internalType":"uint256"}],"stateMutability":"view"},{"type":"function","name":"getYearEmission","inputs":[{"name":"year","type":"uint256","internalType":"uint256"}],"outputs":[{"name":"","type":"uint256","internalType":"uint256"}],"stateMutability":"pure"},{"type":"function","name":"mintDistributor","inputs":[],"outputs":[{"name":"","type":"address","internalType":"address"}],"stateMutability":"view"},{"type":"function","name":"owner","inputs":[],"outputs":[{"name":"","type":"address","internalType":"address"}],"stateMutability":"view"},{"type":"function","name":"startEmissions","inputs":[],"outputs":[],"stateMutability":"nonpayable"},{"type":"function","name":"totalEmitted","inputs":[],"outputs":[{"name":"","type":"uint256","internalType":"uint256"}],"stateMutability":"view"},{"type":"function","name":"totalTheoreticalEmissions","inputs":[],"outputs":[{"name":"","type":"uint256","internalType":"uint256"}],"stateMutability":"view"},{"type":"event","name":"EmissionClaimed","inputs":[{"name":"amount","type":"uint256","indexed":false,"internalType":"uint256"},{"name":"year","type":"uint256","indexed":false,"internalType":"uint256"}],"anonymous":false},{"type":"event","name":"EmissionStarted","inputs":[{"name":"startTime","type":"uint256","indexed":false,"internalType":"uint256"}],"anonymous":false},{"type":"error","name":"AlreadyStarted","inputs":[]},{"type":"error","name":"EmissionCapReached","inputs":[]},{"type":"error","name":"NotStarted","inputs":[]},{"type":"error","name":"Unauthorized","inputs":[]}],"bytecode":{"object":"0x60c060405234801561000f575f80fd5b50604051610d89380380610d898339818101604052810190610031919061019a565b5f73ffffffffffffffffffffffffffffffffffffffff168273ffffffffffffffffffffffffffffffffffffffff16148061009657505f73ffffffffffffffffffffffffffffffffffffffff168173ffffffffffffffffffffffffffffffffffffffff16145b156100cd576040517f82b4290000000000000000000000000000000000000000000000000000000000815260040160405180910390fd5b8173ffffffffffffffffffffffffffffffffffffffff1660808173ffffffffffffffffffffffffffffffffffffffff16815250508073ffffffffffffffffffffffffffffffffffffffff1660a08173ffffffffffffffffffffffffffffffffffffffff168152505050506101d8565b5f80fd5b5f73ffffffffffffffffffffffffffffffffffffffff82169050919050565b5f61016982610140565b9050919050565b6101798161015f565b8114610183575f80fd5b50565b5f8151905061019481610170565b92915050565b5f80604083850312156101b0576101af61013c565b5b5f6101bd85828601610186565b92505060206101ce85828601610186565b9150509250929050565b60805160a051610b826102075f395f818161044a01526105c301525f818161030b015261059f0152610b825ff3fe608060405234801561000f575f80fd5b5060043610610109575f3560e01c8063b55e511d116100a0578063d02b048b1161006f578063d02b048b14610261578063df0244b114610291578063e10478f6146102af578063e6a69ab8146102cd578063fd24f834146102eb57610109565b8063b55e511d146101e9578063bf9a52fe14610207578063c467160814610225578063ce41607a1461024357610109565b80634f935945116100dc5780634f935945146101715780638da5cb5b1461018f578063ae0d32d8146101ad578063b0979e7c146101cb57610109565b80631b02f8451461010d57806324a5d0e314610117578063313310ad146101355780633f25575f14610153575b5f80fd5b610115610309565b005b61011f610407565b60405161012c91906108b0565b60405180910390f35b61013d610447565b60405161014a91906108b0565b60405180910390f35b61015b610581565b60405161016891906108b0565b60405180910390f35b610179610586565b60405161018691906108e3565b60405180910390f35b61019761059d565b6040516101a4919061093b565b60405180910390f35b6101b56105c1565b6040516101c2919061093b565b60405180910390f35b6101d36105e5565b6040516101e091906108b0565b60405180910390f35b6101f16105f4565b6040516101fe91906108b0565b60405180910390f35b61020f6105f9565b60405161021c91906108b0565b60405180910390f35b61022d610618565b60405161023a91906108b0565b60405180910390f35b61024b610637565b60405161025891906108b0565b60405180910390f35b61027b60048036038101906102769190610982565b610656565b60405161028891906108b0565b60405180910390f35b6102996106c3565b6040516102a691906108b0565b60405180910390f35b6102b76106c9565b6040516102c491906108b0565b60405180910390f35b6102d56106d8565b6040516102e291906108b0565b60405180910390f35b6102f36106e0565b60405161030091906108b0565b60405180910390f35b7f000000000000000000000000000000000000000000000000000000000000000073ffffffffffffffffffffffffffffffffffffffff163373ffffffffffffffffffffffffffffffffffffffff161461038e576040517f82b4290000000000000000000000000000000000000000000000000000000000815260040160405180910390fd5b5f8054146103c8576040517f1fbde44500000000000000000000000000000000000000000000000000000000815260040160405180910390fd5b425f819055507f4aeba418988fbec10752293c58bb71a0dd98628ca7bcfa5d88a5ecaa77081d5a426040516103fd91906108b0565b60405180910390a1565b5f805f5403610418575f9050610444565b5f6104216106e5565b90505f61042d82610656565b90506301e133808161043f9190610a07565b925050505b90565b5f7f000000000000000000000000000000000000000000000000000000000000000073ffffffffffffffffffffffffffffffffffffffff163373ffffffffffffffffffffffffffffffffffffffff16146104cd576040517f82b4290000000000000000000000000000000000000000000000000000000000815260040160405180910390fd5b5f805403610507576040517f6f312cbd00000000000000000000000000000000000000000000000000000000815260040160405180910390fd5b61050f61070c565b90505f8103610520575f905061057e565b8060015f8282546105319190610a37565b925050819055505f6105416106e5565b90507f4c3bef82689f377efe6cd33b6bf3708b9400179cf62b1b4ad9b2e1120317f6c98282604051610574929190610a6a565b60405180910390a1505b90565b606481565b5f6a0be951906eba2aa80000006001541015905090565b7f000000000000000000000000000000000000000000000000000000000000000081565b7f000000000000000000000000000000000000000000000000000000000000000081565b6a02fa54641bae8aaa00000081565b5f5481565b5f805f540361060a575f9050610615565b610612610793565b90505b90565b5f805f5403610629575f9050610634565b61063161070c565b90505b90565b5f805f5403610648575f9050610653565b6106506106e5565b90505b90565b5f808203610671576a02fa54641bae8aaa00000090506106be565b5f6a02fa54641bae8aaa00000090505f5b838110156106b8576064604b836106999190610a91565b6106a39190610a07565b915080806106b090610ad2565b915050610682565b50809150505b919050565b60015481565b6a0be951906eba2aa800000081565b6301e1338081565b604b81565b5f805f54426106f49190610b19565b90506301e13380816107069190610a07565b91505090565b5f610715610586565b15610722575f9050610790565b5f61072b610793565b90505f600154821161073d575f61074c565b6001548261074b9190610b19565b5b90506a0be951906eba2aa8000000816001546107689190610a37565b111561078a576001546a0be951906eba2aa80000006107879190610b19565b90505b80925050505b90565b5f805f54426107a29190610b19565b90505f805f8390505b6301e133808110610820575f6107c083610656565b905080846107ce9190610a37565b93506301e13380826107e09190610b19565b915082806107ed90610ad2565b9350506a0be951906eba2aa8000000841061081a576a0be951906eba2aa800000095505050505050610895565b506107ab565b5f811115610863575f61083283610656565b90505f6301e1338083836108469190610a91565b6108509190610a07565b9050808561085e9190610a37565b945050505b6a0be951906eba2aa800000083111561088d576a0be951906eba2aa8000000945050505050610895565b829450505050505b90565b5f819050919050565b6108aa81610898565b82525050565b5f6020820190506108c35f8301846108a1565b92915050565b5f8115159050919050565b6108dd816108c9565b82525050565b5f6020820190506108f65f8301846108d4565b92915050565b5f73ffffffffffffffffffffffffffffffffffffffff82169050919050565b5f610925826108fc565b9050919050565b6109358161091b565b82525050565b5f60208201905061094e5f83018461092c565b92915050565b5f80fd5b61096181610898565b811461096b575f80fd5b50565b5f8135905061097c81610958565b92915050565b5f6020828403121561099757610996610954565b5b5f6109a48482850161096e565b91505092915050565b7f4e487b71000000000000000000000000000000000000000000000000000000005f52601260045260245ffd5b7f4e487b71000000000000000000000000000000000000000000000000000000005f52601160045260245ffd5b5f610a1182610898565b9150610a1c83610898565b925082610a2c57610a2b6109ad565b5b828204905092915050565b5f610a4182610898565b9150610a4c83610898565b9250828201905080821115610a6457610a636109da565b5b92915050565b5f604082019050610a7d5f8301856108a1565b610a8a60208301846108a1565b9392505050565b5f610a9b82610898565b9150610aa683610898565b9250828202610ab481610898565b91508282048414831517610acb57610aca6109da565b5b5092915050565b5f610adc82610898565b91507fffffffffffffffffffffffffffffffffffffffffffffffffffffffffffffffff8203610b0e57610b0d6109da565b5b600182019050919050565b5f610b2382610898565b9150610b2e83610898565b9250828203905081811115610b4657610b456109da565b5b9291505056fea26469706673582212200309a38eecdaebc97d07983dd4da0da6b31fee8d63588680f066ab1f5055c23764736f6c63430008140033","linkReferences":{}},"methodIdentifiers":{"DECAY_DENOMINATOR()":"3f25575f","DECAY_NUMERATOR()":"fd24f834","EMISSION_CAP()":"e10478f6","SECONDS_PER_YEAR()":"e6a69ab8","YEAR_1_EMISSION()":"b0979e7c","capReached()":"4f935945","claimEmission()":"313310ad","claimableNow()":"c4671608","currentEmissionRate()":"24a5d0e3","emissionStartTime()":"b55e511d","getCurrentYear()":"ce41607a","getYearEmission(uint256)":"d02b048b","mintDistributor()":"ae0d32d8","owner()":"8da5cb5b","startEmissions()":"1b02f845","totalEmitted()":"df0244b1","totalTheoreticalEmissions()":"bf9a52fe"},"id":21}