{"abi":[{"type":"constructor","inputs":[{"name":"_owner","type":"address","internalType":"address"},{"name":"_dmdToken","type":"address","internalType":"contract IDMDToken"}],"stateMutability":"nonpayable"},{"type":"function","name":"TGE_PERCENT","inputs":[],"outputs":[{"name":"","type":"uint256","internalType":"uint256"}],"stateMutability":"view"},{"type":"function","name":"VESTING_DURATION","inputs":[],"outputs":[{"name":"","type":"uint256","internalType":"uint256"}],"stateMutability":"view"},{"type":"function","name":"VESTING_PERCENT","inputs":[],"outputs":[{"name":"","type":"uint256","internalType":"uint256"}],"stateMutability":"view"},{"type":"function","name":"addBeneficiary","inputs":[{"name":"beneficiary","type":"address","internalType":"address"},{"name":"allocation","type":"uint256","internalType":"uint256"}],"outputs":[],"stateMutability":"nonpayable"},{"type":"function","name":"beneficiaries","inputs":[{"name":"","type":"address","internalType":"address"}],"outputs":[{"name":"totalAllocation","type":"uint256","internalType":"uint256"},{"name":"claimed","type":"uint256","internalType":"uint256"}],"stateMutability":"view"},{"type":"function","name":"beneficiaryList","inputs":[{"name":"","type":"uint256","internalType":"uint256"}],"outputs":[{"name":"","type":"address","internalType":"address"}],"stateMutability":"view"},{"type":"function","name":"claim","inputs":[],"outputs":[],"stateMutability":"nonpayable"},{"type":"function","name":"claimFor","inputs":[{"name":"beneficiary","type":"address","internalType":"address"}],"outputs":[],"stateMutability":"nonpayable"},{"type":"function","name":"claimMultiple","inputs":[{"name":"_beneficiaries","type":"address[]","internalType":"address[]"}],"outputs":[],"stateMutability":"nonpayable"},{"type":"function","name":"dmdToken","inputs":[],"outputs":[{"name":"","type":"address","internalType":"contract IDMDToken"}],"stateMutability":"view"},{"type":"function","name":"getAllBeneficiaries","inputs":[],"outputs":[{"name":"","type":"address[]","internalType":"address[]"}],"stateMutability":"view"},{"type":"function","name":"getBeneficiary","inputs":[{"name":"beneficiary","type":"address","internalType":"address"}],"outputs":[{"name":"totalAllocation","type":"uint256","internalType":"uint256"},{"name":"claimed","type":"uint256","internalType":"uint256"},{"name":"vested","type":"uint256","internalType":"uint256"},{"name":"claimable","type":"uint256","internalType":"uint256"}],"stateMutability":"view"},{"type":"function","name":"getBeneficiaryCount","inputs":[],"outputs":[{"name":"","type":"uint256","internalType":"uint256"}],"stateMutability":"view"},{"type":"function","name":"getClaimable","inputs":[{"name":"beneficiary","type":"address","internalType":"address"}],"outputs":[{"name":"","type":"uint256","internalType":"uint256"}],"stateMutability":"view"},{"type":"function","name":"getVested","inputs":[{"name":"beneficiary","type":"address","internalType":"address"}],"outputs":[{"name":"","type":"uint256","internalType":"uint256"}],"stateMutability":"view"},{"type":"function","name":"initialized","inputs":[],"outputs":[{"name":"","type":"bool","internalType":"bool"}],"stateMutability":"view"},{"type":"function","name":"owner","inputs":[],"outputs":[{"name":"","type":"address","internalType":"address"}],"stateMutability":"view"},{"type":"function","name":"startVesting","inputs":[],"outputs":[],"stateMutability":"nonpayable"},{"type":"function","name":"tgeTime","inputs":[],"outputs":[{"name":"","type":"uint256","internalType":"uint256"}],"stateMutability":"view"},{"type":"event","name":"BeneficiaryAdded","inputs":[{"name":"beneficiary","type":"address","indexed":true,"internalType":"address"},{"name":"allocation","type":"uint256","indexed":false,"internalType":"uint256"}],"anonymous":false},{"type":"event","name":"Claimed","inputs":[{"name":"beneficiary","type":"address","indexed":true,"internalType":"address"},{"name":"amount","type":"uint256","indexed":false,"internalType":"uint256"}],"anonymous":false},{"type":"event","name":"VestingStarted","inputs":[{"name":"tgeTime","type":"uint256","indexed":false,"internalType":"uint256"}],"anonymous":false},{"type":"error","name":"AlreadyInitialized","inputs":[]},{"type":"error","name":"InvalidAmount","inputs":[]},{"type":"error","name":"InvalidBeneficiary","inputs":[]},{"type":"error","name":"NotStarted","inputs":[]},{"type":"error","name":"NothingToClaim","inputs":[]},{"type":"error","name":"TransferFailed","inputs":[]},{"type":"error","name":"Unauthorized","inputs":[]}],"bytecode":{"object":"0x60c060405234801562000010575f80fd5b5060405162001bd638038062001bd68339818101604052810190620000369190620001eb565b5f73ffffffffffffffffffffffffffffffffffffffff168273ffffffffffffffffffffffffffffffffffffffff1614806200009c57505f73ffffffffffffffffffffffffffffffffffffffff168173ffffffffffffffffffffffffffffffffffffffff16145b15620000d4576040517f5566df5c00000000000000000000000000000000000000000000000000000000815260040160405180910390fd5b8173ffffffffffffffffffffffffffffffffffffffff1660808173ffffffffffffffffffffffffffffffffffffffff16815250508073ffffffffffffffffffffffffffffffffffffffff1660a08173ffffffffffffffffffffffffffffffffffffffff1681525050505062000230565b5f80fd5b5f73ffffffffffffffffffffffffffffffffffffffff82169050919050565b5f620001738262000148565b9050919050565b620001858162000167565b811462000190575f80fd5b50565b5f81519050620001a3816200017a565b92915050565b5f620001b58262000167565b9050919050565b620001c781620001a9565b8114620001d2575f80fd5b50565b5f81519050620001e581620001bc565b92915050565b5f806040838503121562000204576200020362000144565b5b5f620002138582860162000193565b92505060206200022685828601620001d5565b9150509250929050565b60805160a051611961620002755f395f81816103c1015281816105b601528181610cf401526110c401525f8181610791015281816107b50152610e1d01526119615ff3fe608060405234801561000f575f80fd5b506004361061011f575f3560e01c80638da5cb5b116100ab578063d4bc2e3b1161006f578063d4bc2e3b146102fd578063ddeae0331461031b578063deb36e3214610337578063dec8f52e14610341578063f303ad6e146103715761011f565b80638da5cb5b1461024557806396074e70146102635780639a6e7fd11461027f5780639e761bbb1461029d578063a583024b146102cd5761011f565b80633163e3a8116100f25780633163e3a8146101ae578063378253e8146101cc5780634cfc4d30146101ea5780634e71d92d14610208578063505a1b31146102125761011f565b80630156773914610123578063158ef93e146101545780632b7c26e3146101725780632f14bae814610190575b5f80fd5b61013d6004803603810190610138919061135f565b61038d565b60405161014b9291906113a2565b60405180910390f35b61015c6103ad565b60405161016991906113e3565b60405180910390f35b61017a6103bf565b6040516101879190611457565b60405180910390f35b6101986103e3565b6040516101a59190611527565b60405180910390f35b6101b661046e565b6040516101c39190611547565b60405180910390f35b6101d4610473565b6040516101e19190611547565b60405180910390f35b6101f2610478565b6040516101ff9190611547565b60405180910390f35b610210610480565b005b61022c6004803603810190610227919061135f565b6106dc565b60405161023c9493929190611560565b60405180910390f35b61024d61078f565b60405161025a91906115b2565b60405180910390f35b61027d600480360381019061027891906115f5565b6107b3565b005b610287610aad565b6040516102949190611547565b60405180910390f35b6102b760048036038101906102b29190611633565b610ab9565b6040516102c491906115b2565b60405180910390f35b6102e760048036038101906102e2919061135f565b610af4565b6040516102f49190611547565b60405180910390f35b610305610bb9565b6040516103129190611547565b60405180910390f35b6103356004803603810190610330919061135f565b610bbe565b005b61033f610e1b565b005b61035b6004803603810190610356919061135f565b610f7d565b6040516103689190611547565b60405180910390f35b61038b600480360381019061038691906116bf565b610faa565b005b6002602052805f5260405f205f91509050805f0154908060010154905082565b60015f9054906101000a900460ff1681565b7f000000000000000000000000000000000000000000000000000000000000000081565b6060600380548060200260200160405190810160405280929190818152602001828054801561046457602002820191905f5260205f20905b815f9054906101000a900473ffffffffffffffffffffffffffffffffffffffff1673ffffffffffffffffffffffffffffffffffffffff168152602001906001019080831161041b575b5050505050905090565b5f5481565b600581565b630d28688081565b60015f9054906101000a900460ff166104c5576040517f6f312cbd00000000000000000000000000000000000000000000000000000000815260040160405180910390fd5b5f60025f3373ffffffffffffffffffffffffffffffffffffffff1673ffffffffffffffffffffffffffffffffffffffff1681526020019081526020015f2090505f815f015403610541576040517f5566df5c00000000000000000000000000000000000000000000000000000000815260040160405180910390fd5b5f61054b336111da565b90505f82600101548261055e9190611737565b90505f8103610599576040517f969bf72800000000000000000000000000000000000000000000000000000000815260040160405180910390fd5b80836001015f8282546105ac919061176a565b925050819055505f7f000000000000000000000000000000000000000000000000000000000000000073ffffffffffffffffffffffffffffffffffffffff1663a9059cbb33846040518363ffffffff1660e01b815260040161060f92919061179d565b6020604051808303815f875af115801561062b573d5f803e3d5ffd5b505050506040513d601f19601f8201168201806040525081019061064f91906117ee565b905080610688576040517f90b8ec1800000000000000000000000000000000000000000000000000000000815260040160405180910390fd5b3373ffffffffffffffffffffffffffffffffffffffff167fd8138f8a3f377c5259ca548e70e4c2de94f129f5a11036a15b69513cba2b426a836040516106ce9190611547565b60405180910390a250505050565b5f805f805f60025f8773ffffffffffffffffffffffffffffffffffffffff1673ffffffffffffffffffffffffffffffffffffffff1681526020019081526020015f206040518060400160405290815f82015481526020016001820154815250509050805f015194508060200151935060015f9054906101000a900460ff161561078757610768866111da565b9250838311610777575f610784565b83836107839190611737565b5b91505b509193509193565b7f000000000000000000000000000000000000000000000000000000000000000081565b7f000000000000000000000000000000000000000000000000000000000000000073ffffffffffffffffffffffffffffffffffffffff163373ffffffffffffffffffffffffffffffffffffffff1614610838576040517f82b4290000000000000000000000000000000000000000000000000000000000815260040160405180910390fd5b60015f9054906101000a900460ff161561087e576040517f0dc149f000000000000000000000000000000000000000000000000000000000815260040160405180910390fd5b5f73ffffffffffffffffffffffffffffffffffffffff168273ffffffffffffffffffffffffffffffffffffffff16036108e3576040517f5566df5c00000000000000000000000000000000000000000000000000000000815260040160405180910390fd5b5f810361091c576040517f2c5211c600000000000000000000000000000000000000000000000000000000815260040160405180910390fd5b5f60025f8473ffffffffffffffffffffffffffffffffffffffff1673ffffffffffffffffffffffffffffffffffffffff1681526020019081526020015f205f015414610994576040517f0dc149f000000000000000000000000000000000000000000000000000000000815260040160405180910390fd5b60405180604001604052808281526020015f81525060025f8473ffffffffffffffffffffffffffffffffffffffff1673ffffffffffffffffffffffffffffffffffffffff1681526020019081526020015f205f820151815f015560208201518160010155905050600382908060018154018082558091505060019003905f5260205f20015f9091909190916101000a81548173ffffffffffffffffffffffffffffffffffffffff021916908373ffffffffffffffffffffffffffffffffffffffff1602179055508173ffffffffffffffffffffffffffffffffffffffff167fe6b83177f11971ba30369bb38b914ffba97d5969a3c857b286fa8fdbb150b3ba82604051610aa19190611547565b60405180910390a25050565b5f600380549050905090565b60038181548110610ac8575f80fd5b905f5260205f20015f915054906101000a900473ffffffffffffffffffffffffffffffffffffffff1681565b5f60015f9054906101000a900460ff16610b10575f9050610bb4565b5f60025f8473ffffffffffffffffffffffffffffffffffffffff1673ffffffffffffffffffffffffffffffffffffffff1681526020019081526020015f206040518060400160405290815f820154815260200160018201548152505090505f815f015103610b81575f915050610bb4565b5f610b8b846111da565b905081602001518111610b9e575f610baf565b816020015181610bae9190611737565b5b925050505b919050565b605f81565b60015f9054906101000a900460ff16610c03576040517f6f312cbd00000000000000000000000000000000000000000000000000000000815260040160405180910390fd5b5f60025f8373ffffffffffffffffffffffffffffffffffffffff1673ffffffffffffffffffffffffffffffffffffffff1681526020019081526020015f2090505f815f015403610c7f576040517f5566df5c00000000000000000000000000000000000000000000000000000000815260040160405180910390fd5b5f610c89836111da565b90505f826001015482610c9c9190611737565b90505f8103610cd7576040517f969bf72800000000000000000000000000000000000000000000000000000000815260040160405180910390fd5b80836001015f828254610cea919061176a565b925050819055505f7f000000000000000000000000000000000000000000000000000000000000000073ffffffffffffffffffffffffffffffffffffffff1663a9059cbb86846040518363ffffffff1660e01b8152600401610d4d92919061179d565b6020604051808303815f875af1158015610d69573d5f803e3d5ffd5b505050506040513d601f19601f82011682018060405250810190610d8d91906117ee565b905080610dc6576040517f90b8ec1800000000000000000000000000000000000000000000000000000000815260040160405180910390fd5b8473ffffffffffffffffffffffffffffffffffffffff167fd8138f8a3f377c5259ca548e70e4c2de94f129f5a11036a15b69513cba2b426a83604051610e0c9190611547565b60405180910390a25050505050565b7f000000000000000000000000000000000000000000000000000000000000000073ffffffffffffffffffffffffffffffffffffffff163373ffffffffffffffffffffffffffffffffffffffff1614610ea0576040517f82b4290000000000000000000000000000000000000000000000000000000000815260040160405180910390fd5b60015f9054906101000a900460ff1615610ee6576040517f0dc149f000000000000000000000000000000000000000000000000000000000815260040160405180910390fd5b5f60038054905003610f24576040517f5566df5c00000000000000000000000000000000000000000000000000000000815260040160405180910390fd5b6001805f6101000a81548160ff021916908315150217905550425f819055507f3930f04857ba592ba0a6a96942f8350c2415c0a4aa849021aeefee98bb55b1225f54604051610f739190611547565b60405180910390a1565b5f60015f9054906101000a900460ff16610f99575f9050610fa5565b610fa2826111da565b90505b919050565b60015f9054906101000a900460ff16610fef576040517f6f312cbd00000000000000000000000000000000000000000000000000000000815260040160405180910390fd5b5f5b828290508110156111d5575f8383838181106110105761100f611819565b5b9050602002016020810190611025919061135f565b90505f60025f8373ffffffffffffffffffffffffffffffffffffffff1673ffffffffffffffffffffffffffffffffffffffff1681526020019081526020015f2090505f815f0154036110785750506111c2565b5f611082836111da565b90505f8260010154826110959190611737565b90505f81036110a757505050506111c2565b80836001015f8282546110ba919061176a565b925050819055505f7f000000000000000000000000000000000000000000000000000000000000000073ffffffffffffffffffffffffffffffffffffffff1663a9059cbb86846040518363ffffffff1660e01b815260040161111d92919061179d565b6020604051808303815f875af1158015611139573d5f803e3d5ffd5b505050506040513d601f19601f8201168201806040525081019061115d91906117ee565b90508061116e5750505050506111c2565b8473ffffffffffffffffffffffffffffffffffffffff167fd8138f8a3f377c5259ca548e70e4c2de94f129f5a11036a15b69513cba2b426a836040516111b49190611547565b60405180910390a250505050505b80806111cd90611846565b915050610ff1565b505050565b5f8060025f8473ffffffffffffffffffffffffffffffffffffffff1673ffffffffffffffffffffffffffffffffffffffff1681526020019081526020015f206040518060400160405290815f820154815260200160018201548152505090505f60646005835f015161124c919061188d565b61125691906118fb565b90505f5442101561126b575f925050506112f8565b5f54420361127d5780925050506112f8565b5f6064605f845f0151611290919061188d565b61129a91906118fb565b90505f8054426112aa9190611737565b9050630d28688081106112c657835f01519450505050506112f8565b5f630d28688082846112d8919061188d565b6112e291906118fb565b905080846112f0919061176a565b955050505050505b919050565b5f80fd5b5f80fd5b5f73ffffffffffffffffffffffffffffffffffffffff82169050919050565b5f61132e82611305565b9050919050565b61133e81611324565b8114611348575f80fd5b50565b5f8135905061135981611335565b92915050565b5f60208284031215611374576113736112fd565b5b5f6113818482850161134b565b91505092915050565b5f819050919050565b61139c8161138a565b82525050565b5f6040820190506113b55f830185611393565b6113c26020830184611393565b9392505050565b5f8115159050919050565b6113dd816113c9565b82525050565b5f6020820190506113f65f8301846113d4565b92915050565b5f819050919050565b5f61141f61141a61141584611305565b6113fc565b611305565b9050919050565b5f61143082611405565b9050919050565b5f61144182611426565b9050919050565b61145181611437565b82525050565b5f60208201905061146a5f830184611448565b92915050565b5f81519050919050565b5f82825260208201905092915050565b5f819050602082019050919050565b6114a281611324565b82525050565b5f6114b38383611499565b60208301905092915050565b5f602082019050919050565b5f6114d582611470565b6114df818561147a565b93506114ea8361148a565b805f5b8381101561151a57815161150188826114a8565b975061150c836114bf565b9250506001810190506114ed565b5085935050505092915050565b5f6020820190508181035f83015261153f81846114cb565b905092915050565b5f60208201905061155a5f830184611393565b92915050565b5f6080820190506115735f830187611393565b6115806020830186611393565b61158d6040830185611393565b61159a6060830184611393565b95945050505050565b6115ac81611324565b82525050565b5f6020820190506115c55f8301846115a3565b92915050565b6115d48161138a565b81146115de575f80fd5b50565b5f813590506115ef816115cb565b92915050565b5f806040838503121561160b5761160a6112fd565b5b5f6116188582860161134b565b9250506020611629858286016115e1565b9150509250929050565b5f60208284031215611648576116476112fd565b5b5f611655848285016115e1565b91505092915050565b5f80fd5b5f80fd5b5f80fd5b5f8083601f84011261167f5761167e61165e565b5b8235905067ffffffffffffffff81111561169c5761169b611662565b5b6020830191508360208202830111156116b8576116b7611666565b5b9250929050565b5f80602083850312156116d5576116d46112fd565b5b5f83013567ffffffffffffffff8111156116f2576116f1611301565b5b6116fe8582860161166a565b92509250509250929050565b7f4e487b71000000000000000000000000000000000000000000000000000000005f52601160045260245ffd5b5f6117418261138a565b915061174c8361138a565b92508282039050818111156117645761176361170a565b5b92915050565b5f6117748261138a565b915061177f8361138a565b92508282019050808211156117975761179661170a565b5b92915050565b5f6040820190506117b05f8301856115a3565b6117bd6020830184611393565b9392505050565b6117cd816113c9565b81146117d7575f80fd5b50565b5f815190506117e8816117c4565b92915050565b5f60208284031215611803576118026112fd565b5b5f611810848285016117da565b91505092915050565b7f4e487b71000000000000000000000000000000000000000000000000000000005f52603260045260245ffd5b5f6118508261138a565b91507fffffffffffffffffffffffffffffffffffffffffffffffffffffffffffffffff82036118825761188161170a565b5b600182019050919050565b5f6118978261138a565b91506118a28361138a565b92508282026118b08161138a565b915082820484148315176118c7576118c661170a565b5b5092915050565b7f4e487b71000000000000000000000000000000000000000000000000000000005f52601260045260245ffd5b5f6119058261138a565b91506119108361138a565b9250826119205761191f6118ce565b5b82820490509291505056fea264697066735822122022e2b1be00e9af1003f3c6c30288a0731f95edc73873b7b240405c830776885464736f6c63430008140033","linkReferences":{}},"methodIdentifiers":{"TGE_PERCENT()":"378253e8","VESTING_DURATION()":"4cfc4d30","VESTING_PERCENT()":"d4bc2e3b","addBeneficiary(address,uint256)":"96074e70","beneficiaries(address)":"01567739","beneficiaryList(uint256)":"9e761bbb","claim()":"4e71d92d","claimFor(address)":"ddeae033","claimMultiple(address[])":"f303ad6e","dmdToken()":"2b7c26e3","getAllBeneficiaries()":"2f14bae8","getBeneficiary(address)":"505a1b31","getBeneficiaryCount()":"9a6e7fd1","getClaimable(address)":"a583024b","getVested(address)":"dec8f52e","initialized()":"158ef93e","owner()":"8da5cb5b","startVesting()":"deb36e32","tgeTime()":"3163e3a8"},"id":24}