{"abi":[{"type":"constructor","inputs":[{"name":"_mintDistributor","type":"address","internalType":"address"}],"stateMutability":"nonpayable"},{"type":"function","name":"MAX_SUPPLY","inputs":[],"outputs":[{"name":"","type":"uint256","internalType":"uint256"}],"stateMutability":"view"},{"type":"function","name":"allowance","inputs":[{"name":"","type":"address","internalType":"address"},{"name":"","type":"address","internalType":"address"}],"outputs":[{"name":"","type":"uint256","internalType":"uint256"}],"stateMutability":"view"},{"type":"function","name":"approve","inputs":[{"name":"spender","type":"address","internalType":"address"},{"name":"amount","type":"uint256","internalType":"uint256"}],"outputs":[{"name":"","type":"bool","internalType":"bool"}],"stateMutability":"nonpayable"},{"type":"function","name":"balanceOf","inputs":[{"name":"","type":"address","internalType":"address"}],"outputs":[{"name":"","type":"uint256","internalType":"uint256"}],"stateMutability":"view"},{"type":"function","name":"burn","inputs":[{"name":"amount","type":"uint256","internalType":"uint256"}],"outputs":[],"stateMutability":"nonpayable"},{"type":"function","name":"circulatingSupply","inputs":[],"outputs":[{"name":"","type":"uint256","internalType":"uint256"}],"stateMutability":"view"},{"type":"function","name":"decimals","inputs":[],"outputs":[{"name":"","type":"uint8","internalType":"uint8"}],"stateMutability":"view"},{"type":"function","name":"mint","inputs":[{"name":"to","type":"address","internalType":"address"},{"name":"amount","type":"uint256","internalType":"uint256"}],"outputs":[],"stateMutability":"nonpayable"},{"type":"function","name":"mintDistributor","inputs":[],"outputs":[{"name":"","type":"address","internalType":"address"}],"stateMutability":"view"},{"type":"function","name":"name","inputs":[],"outputs":[{"name":"","type":"string","internalType":"string"}],"stateMutability":"view"},{"type":"function","name":"symbol","inputs":[],"outputs":[{"name":"","type":"string","internalType":"string"}],"stateMutability":"view"},{"type":"function","name":"totalBurned","inputs":[],"outputs":[{"name":"","type":"uint256","internalType":"uint256"}],"stateMutability":"view"},{"type":"function","name":"totalMinted","inputs":[],"outputs":[{"name":"","type":"uint256","internalType":"uint256"}],"stateMutability":"view"},{"type":"function","name":"totalSupply","inputs":[],"outputs":[{"name":"","type":"uint256","internalType":"uint256"}],"stateMutability":"view"},{"type":"function","name":"transfer","inputs":[{"name":"to","type":"address","internalType":"address"},{"name":"amount","type":"uint256","internalType":"uint256"}],"outputs":[{"name":"","type":"bool","internalType":"bool"}],"stateMutability":"nonpayable"},{"type":"function","name":"transferFrom","inputs":[{"name":"from","type":"address","internalType":"address"},{"name":"to","type":"address","internalType":"address"},{"name":"amount","type":"uint256","internalType":"uint256"}],"outputs":[{"name":"","type":"bool","internalType":"bool"}],"stateMutability":"nonpayable"},{"type":"event","name":"Approval","inputs":[{"name":"owner","type":"address","indexed":true,"internalType":"address"},{"name":"spender","type":"address","indexed":true,"internalType":"address"},{"name":"amount","type":"uint256","indexed":false,"internalType":"uint256"}],"anonymous":false},{"type":"event","name":"Burned","inputs":[{"name":"from","type":"address","indexed":true,"internalType":"address"},{"name":"amount","type":"uint256","indexed":false,"internalType":"uint256"}],"anonymous":false},{"type":"event","name":"Minted","inputs":[{"name":"to","type":"address","indexed":true,"internalType":"address"},{"name":"amount","type":"uint256","indexed":false,"internalType":"uint256"}],"anonymous":false},{"type":"event","name":"Transfer","inputs":[{"name":"from","type":"address","indexed":true,"internalType":"address"},{"name":"to","type":"address","indexed":true,"internalType":"address"},{"name":"amount","type":"uint256","indexed":false,"internalType":"uint256"}],"anonymous":false},{"type":"error","name":"ExceedsMaxSupply","inputs":[]},{"type":"error","name":"InsufficientBalance","inputs":[]},{"type":"error","name":"InvalidAmount","inputs":[]},{"type":"error","name":"InvalidRecipient","inputs":[]},{"type":"error","name":"Unauthorized","inputs":[]}],"bytecode":{"object":"0x60a060405234801562000010575f80fd5b50604051620014413803806200144183398181016040528101906200003691906200013c565b5f73ffffffffffffffffffffffffffffffffffffffff168173ffffffffffffffffffffffffffffffffffffffff16036200009c576040517f9c8d2cd200000000000000000000000000000000000000000000000000000000815260040160405180910390fd5b8073ffffffffffffffffffffffffffffffffffffffff1660808173ffffffffffffffffffffffffffffffffffffffff1681525050506200016c565b5f80fd5b5f73ffffffffffffffffffffffffffffffffffffffff82169050919050565b5f6200010682620000db565b9050919050565b6200011881620000fa565b811462000123575f80fd5b50565b5f8151905062000136816200010d565b92915050565b5f60208284031215620001545762000153620000d7565b5b5f620001638482850162000126565b91505092915050565b6080516112b56200018c5f395f81816107e30152610e9001526112b55ff3fe608060405234801561000f575f80fd5b50600436106100fe575f3560e01c806370a0823111610095578063a9059cbb11610064578063a9059cbb1461029c578063ae0d32d8146102cc578063d89135cd146102ea578063dd62ed3e14610308576100fe565b806370a08231146102125780639358928b1461024257806395d89b4114610260578063a2309ff81461027e576100fe565b8063313ce567116100d1578063313ce5671461019e57806332cb6b0c146101bc57806340c10f19146101da57806342966c68146101f6576100fe565b806306fdde0314610102578063095ea7b31461012057806318160ddd1461015057806323b872dd1461016e575b5f80fd5b61010a610338565b6040516101179190610f62565b60405180910390f35b61013a60048036038101906101359190611013565b610371565b604051610147919061106b565b60405180910390f35b61015861045e565b6040516101659190611093565b60405180910390f35b610188600480360381019061018391906110ac565b610473565b604051610195919061106b565b60405180910390f35b6101a66107cd565b6040516101b39190611117565b60405180910390f35b6101c46107d2565b6040516101d19190611093565b60405180910390f35b6101f460048036038101906101ef9190611013565b6107e1565b005b610210600480360381019061020b9190611130565b610a6a565b005b61022c6004803603810190610227919061115b565b610c3b565b6040516102399190611093565b60405180910390f35b61024a610c50565b6040516102579190611093565b60405180910390f35b610268610c5e565b6040516102759190610f62565b60405180910390f35b610286610c97565b6040516102939190611093565b60405180910390f35b6102b660048036038101906102b19190611013565b610c9c565b6040516102c3919061106b565b60405180910390f35b6102d4610e8e565b6040516102e19190611195565b60405180910390f35b6102f2610eb2565b6040516102ff9190611093565b60405180910390f35b610322600480360381019061031d91906111ae565b610eb8565b60405161032f9190611093565b60405180910390f35b6040518060400160405280600c81526020017f444d442050726f746f636f6c000000000000000000000000000000000000000081525081565b5f8160035f3373ffffffffffffffffffffffffffffffffffffffff1673ffffffffffffffffffffffffffffffffffffffff1681526020019081526020015f205f8573ffffffffffffffffffffffffffffffffffffffff1673ffffffffffffffffffffffffffffffffffffffff1681526020019081526020015f20819055508273ffffffffffffffffffffffffffffffffffffffff163373ffffffffffffffffffffffffffffffffffffffff167f8c5be1e5ebec7d5bd14f71427d1e84f3dd0314c0f7b2291e5b200ac8c7c3b9258460405161044c9190611093565b60405180910390a36001905092915050565b5f6001545f5461046e9190611219565b905090565b5f8073ffffffffffffffffffffffffffffffffffffffff168373ffffffffffffffffffffffffffffffffffffffff16036104d9576040517f9c8d2cd200000000000000000000000000000000000000000000000000000000815260040160405180910390fd5b5f60035f8673ffffffffffffffffffffffffffffffffffffffff1673ffffffffffffffffffffffffffffffffffffffff1681526020019081526020015f205f3373ffffffffffffffffffffffffffffffffffffffff1673ffffffffffffffffffffffffffffffffffffffff1681526020019081526020015f205490507fffffffffffffffffffffffffffffffffffffffffffffffffffffffffffffffff811461063f57828110156105b6576040517ff4d678b800000000000000000000000000000000000000000000000000000000815260040160405180910390fd5b82816105c29190611219565b60035f8773ffffffffffffffffffffffffffffffffffffffff1673ffffffffffffffffffffffffffffffffffffffff1681526020019081526020015f205f3373ffffffffffffffffffffffffffffffffffffffff1673ffffffffffffffffffffffffffffffffffffffff1681526020019081526020015f20819055505b8260025f8773ffffffffffffffffffffffffffffffffffffffff1673ffffffffffffffffffffffffffffffffffffffff1681526020019081526020015f205410156106b6576040517ff4d678b800000000000000000000000000000000000000000000000000000000815260040160405180910390fd5b8260025f8773ffffffffffffffffffffffffffffffffffffffff1673ffffffffffffffffffffffffffffffffffffffff1681526020019081526020015f205f8282546107029190611219565b925050819055508260025f8673ffffffffffffffffffffffffffffffffffffffff1673ffffffffffffffffffffffffffffffffffffffff1681526020019081526020015f205f828254610755919061124c565b925050819055508373ffffffffffffffffffffffffffffffffffffffff168573ffffffffffffffffffffffffffffffffffffffff167fddf252ad1be2c89b69c2b068fc378daa952ba7f163c4a11628f55a4df523b3ef856040516107b99190611093565b60405180910390a360019150509392505050565b601281565b6a0ee3a5f48a68b55200000081565b7f000000000000000000000000000000000000000000000000000000000000000073ffffffffffffffffffffffffffffffffffffffff163373ffffffffffffffffffffffffffffffffffffffff1614610866576040517f82b4290000000000000000000000000000000000000000000000000000000000815260040160405180910390fd5b5f73ffffffffffffffffffffffffffffffffffffffff168273ffffffffffffffffffffffffffffffffffffffff16036108cb576040517f9c8d2cd200000000000000000000000000000000000000000000000000000000815260040160405180910390fd5b5f8103610904576040517f2c5211c600000000000000000000000000000000000000000000000000000000815260040160405180910390fd5b5f815f54610912919061124c565b90506a0ee3a5f48a68b552000000811115610959576040517fc30436e900000000000000000000000000000000000000000000000000000000815260040160405180910390fd5b805f819055508160025f8573ffffffffffffffffffffffffffffffffffffffff1673ffffffffffffffffffffffffffffffffffffffff1681526020019081526020015f205f8282546109ab919061124c565b925050819055508273ffffffffffffffffffffffffffffffffffffffff167f30385c845b448a36257a6a1716e6ad2e1bc2cbe333cde1e69fe849ad6511adfe836040516109f89190611093565b60405180910390a28273ffffffffffffffffffffffffffffffffffffffff165f73ffffffffffffffffffffffffffffffffffffffff167fddf252ad1be2c89b69c2b068fc378daa952ba7f163c4a11628f55a4df523b3ef84604051610a5d9190611093565b60405180910390a3505050565b5f8103610aa3576040517f2c5211c600000000000000000000000000000000000000000000000000000000815260040160405180910390fd5b8060025f3373ffffffffffffffffffffffffffffffffffffffff1673ffffffffffffffffffffffffffffffffffffffff1681526020019081526020015f20541015610b1a576040517ff4d678b800000000000000000000000000000000000000000000000000000000815260040160405180910390fd5b8060025f3373ffffffffffffffffffffffffffffffffffffffff1673ffffffffffffffffffffffffffffffffffffffff1681526020019081526020015f205f828254610b669190611219565b925050819055508060015f828254610b7e919061124c565b925050819055503373ffffffffffffffffffffffffffffffffffffffff167f696de425f79f4a40bc6d2122ca50507f0efbeabbff86a84871b7196ab8ea8df782604051610bcb9190611093565b60405180910390a25f73ffffffffffffffffffffffffffffffffffffffff163373ffffffffffffffffffffffffffffffffffffffff167fddf252ad1be2c89b69c2b068fc378daa952ba7f163c4a11628f55a4df523b3ef83604051610c309190611093565b60405180910390a350565b6002602052805f5260405f205f915090505481565b5f610c5961045e565b905090565b6040518060400160405280600381526020017f444d44000000000000000000000000000000000000000000000000000000000081525081565b5f5481565b5f8073ffffffffffffffffffffffffffffffffffffffff168373ffffffffffffffffffffffffffffffffffffffff1603610d02576040517f9c8d2cd200000000000000000000000000000000000000000000000000000000815260040160405180910390fd5b8160025f3373ffffffffffffffffffffffffffffffffffffffff1673ffffffffffffffffffffffffffffffffffffffff1681526020019081526020015f20541015610d79576040517ff4d678b800000000000000000000000000000000000000000000000000000000815260040160405180910390fd5b8160025f3373ffffffffffffffffffffffffffffffffffffffff1673ffffffffffffffffffffffffffffffffffffffff1681526020019081526020015f205f828254610dc59190611219565b925050819055508160025f8573ffffffffffffffffffffffffffffffffffffffff1673ffffffffffffffffffffffffffffffffffffffff1681526020019081526020015f205f828254610e18919061124c565b925050819055508273ffffffffffffffffffffffffffffffffffffffff163373ffffffffffffffffffffffffffffffffffffffff167fddf252ad1be2c89b69c2b068fc378daa952ba7f163c4a11628f55a4df523b3ef84604051610e7c9190611093565b60405180910390a36001905092915050565b7f000000000000000000000000000000000000000000000000000000000000000081565b60015481565b6003602052815f5260405f20602052805f5260405f205f91509150505481565b5f81519050919050565b5f82825260208201905092915050565b5f5b83811015610f0f578082015181840152602081019050610ef4565b5f8484015250505050565b5f601f19601f8301169050919050565b5f610f3482610ed8565b610f3e8185610ee2565b9350610f4e818560208601610ef2565b610f5781610f1a565b840191505092915050565b5f6020820190508181035f830152610f7a8184610f2a565b905092915050565b5f80fd5b5f73ffffffffffffffffffffffffffffffffffffffff82169050919050565b5f610faf82610f86565b9050919050565b610fbf81610fa5565b8114610fc9575f80fd5b50565b5f81359050610fda81610fb6565b92915050565b5f819050919050565b610ff281610fe0565b8114610ffc575f80fd5b50565b5f8135905061100d81610fe9565b92915050565b5f806040838503121561102957611028610f82565b5b5f61103685828601610fcc565b925050602061104785828601610fff565b9150509250929050565b5f8115159050919050565b61106581611051565b82525050565b5f60208201905061107e5f83018461105c565b92915050565b61108d81610fe0565b82525050565b5f6020820190506110a65f830184611084565b92915050565b5f805f606084860312156110c3576110c2610f82565b5b5f6110d086828701610fcc565b93505060206110e186828701610fcc565b92505060406110f286828701610fff565b9150509250925092565b5f60ff82169050919050565b611111816110fc565b82525050565b5f60208201905061112a5f830184611108565b92915050565b5f6020828403121561114557611144610f82565b5b5f61115284828501610fff565b91505092915050565b5f602082840312156111705761116f610f82565b5b5f61117d84828501610fcc565b91505092915050565b61118f81610fa5565b82525050565b5f6020820190506111a85f830184611186565b92915050565b5f80604083850312156111c4576111c3610f82565b5b5f6111d185828601610fcc565b92505060206111e285828601610fcc565b9150509250929050565b7f4e487b71000000000000000000000000000000000000000000000000000000005f52601160045260245ffd5b5f61122382610fe0565b915061122e83610fe0565b9250828203905081811115611246576112456111ec565b5b92915050565b5f61125682610fe0565b915061126183610fe0565b9250828201905080821115611279576112786111ec565b5b9291505056fea26469706673582212201587d4afb956de5164b5b4318e93c130974a96529c6540d6ecff3f10cb03776e64736f6c63430008140033","linkReferences":{}},"methodIdentifiers":{"MAX_SUPPLY()":"32cb6b0c","allowance(address,address)":"dd62ed3e","approve(address,uint256)":"095ea7b3","balanceOf(address)":"70a08231","burn(uint256)":"42966c68","circulatingSupply()":"9358928b","decimals()":"313ce567","mint(address,uint256)":"40c10f19","mintDistributor()":"ae0d32d8","name()":"06fdde03","symbol()":"95d89b41","totalBurned()":"d89135cd","totalMinted()":"a2309ff8","totalSupply()":"18160ddd","transfer(address,uint256)":"a9059cbb","transferFrom(address,address,uint256)":"23b872dd"},"id":20}