{"abi":[{"type":"constructor","inputs":[{"name":"_wbtc","type":"address","internalType":"address"},{"name":"_redemptionEngine","type":"address","internalType":"address"}],"stateMutability":"nonpayable"},{"type":"function","name":"MAX_WEIGHT_MONTHS","inputs":[],"outputs":[{"name":"","type":"uint256","internalType":"uint256"}],"stateMutability":"view"},{"type":"function","name":"WEIGHT_BASE","inputs":[],"outputs":[{"name":"","type":"uint256","internalType":"uint256"}],"stateMutability":"view"},{"type":"function","name":"WEIGHT_PER_MONTH","inputs":[],"outputs":[{"name":"","type":"uint256","internalType":"uint256"}],"stateMutability":"view"},{"type":"function","name":"calculateWeight","inputs":[{"name":"amount","type":"uint256","internalType":"uint256"},{"name":"lockMonths","type":"uint256","internalType":"uint256"}],"outputs":[{"name":"","type":"uint256","internalType":"uint256"}],"stateMutability":"pure"},{"type":"function","name":"getPosition","inputs":[{"name":"user","type":"address","internalType":"address"},{"name":"positionId","type":"uint256","internalType":"uint256"}],"outputs":[{"name":"amount","type":"uint256","internalType":"uint256"},{"name":"lockMonths","type":"uint256","internalType":"uint256"},{"name":"lockTime","type":"uint256","internalType":"uint256"},{"name":"weight","type":"uint256","internalType":"uint256"},{"name":"unlockTime","type":"uint256","internalType":"uint256"}],"stateMutability":"view"},{"type":"function","name":"getUserWeight","inputs":[{"name":"user","type":"address","internalType":"address"}],"outputs":[{"name":"","type":"uint256","internalType":"uint256"}],"stateMutability":"view"},{"type":"function","name":"isUnlocked","inputs":[{"name":"user","type":"address","internalType":"address"},{"name":"positionId","type":"uint256","internalType":"uint256"}],"outputs":[{"name":"","type":"bool","internalType":"bool"}],"stateMutability":"view"},{"type":"function","name":"lock","inputs":[{"name":"amount","type":"uint256","internalType":"uint256"},{"name":"lockMonths","type":"uint256","internalType":"uint256"}],"outputs":[{"name":"positionId","type":"uint256","internalType":"uint256"}],"stateMutability":"nonpayable"},{"type":"function","name":"positionCount","inputs":[{"name":"","type":"address","internalType":"address"}],"outputs":[{"name":"","type":"uint256","internalType":"uint256"}],"stateMutability":"view"},{"type":"function","name":"positions","inputs":[{"name":"","type":"address","internalType":"address"},{"name":"","type":"uint256","internalType":"uint256"}],"outputs":[{"name":"amount","type":"uint256","internalType":"uint256"},{"name":"lockMonths","type":"uint256","internalType":"uint256"},{"name":"lockTime","type":"uint256","internalType":"uint256"},{"name":"weight","type":"uint256","internalType":"uint256"}],"stateMutability":"view"},{"type":"function","name":"redeem","inputs":[{"name":"user","type":"address","internalType":"address"},{"name":"positionId","type":"uint256","internalType":"uint256"}],"outputs":[],"stateMutability":"nonpayable"},{"type":"function","name":"redemptionEngine","inputs":[],"outputs":[{"name":"","type":"address","internalType":"address"}],"stateMutability":"view"},{"type":"function","name":"totalLockedWBTC","inputs":[],"outputs":[{"name":"","type":"uint256","internalType":"uint256"}],"stateMutability":"view"},{"type":"function","name":"totalSystemWeight","inputs":[],"outputs":[{"name":"","type":"uint256","internalType":"uint256"}],"stateMutability":"view"},{"type":"function","name":"totalWeightOf","inputs":[{"name":"","type":"address","internalType":"address"}],"outputs":[{"name":"","type":"uint256","internalType":"uint256"}],"stateMutability":"view"},{"type":"function","name":"wbtc","inputs":[],"outputs":[{"name":"","type":"address","internalType":"address"}],"stateMutability":"view"},{"type":"event","name":"Locked","inputs":[{"name":"user","type":"address","indexed":true,"internalType":"address"},{"name":"positionId","type":"uint256","indexed":true,"internalType":"uint256"},{"name":"amount","type":"uint256","indexed":false,"internalType":"uint256"},{"name":"lockMonths","type":"uint256","indexed":false,"internalType":"uint256"},{"name":"weight","type":"uint256","indexed":false,"internalType":"uint256"}],"anonymous":false},{"type":"event","name":"Redeemed","inputs":[{"name":"user","type":"address","indexed":true,"internalType":"address"},{"name":"positionId","type":"uint256","indexed":true,"internalType":"uint256"},{"name":"amount","type":"uint256","indexed":false,"internalType":"uint256"}],"anonymous":false},{"type":"error","name":"InvalidAmount","inputs":[]},{"type":"error","name":"InvalidDuration","inputs":[]},{"type":"error","name":"LockNotExpired","inputs":[]},{"type":"error","name":"PositionNotFound","inputs":[]},{"type":"error","name":"Unauthorized","inputs":[]}],"bytecode":{"object":"0x60c060405234801562000010575f80fd5b506040516200155b3803806200155b8339818101604052810190620000369190620001a9565b5f73ffffffffffffffffffffffffffffffffffffffff168273ffffffffffffffffffffffffffffffffffffffff1614806200009c57505f73ffffffffffffffffffffffffffffffffffffffff168173ffffffffffffffffffffffffffffffffffffffff16145b15620000d4576040517f2c5211c600000000000000000000000000000000000000000000000000000000815260040160405180910390fd5b8173ffffffffffffffffffffffffffffffffffffffff1660808173ffffffffffffffffffffffffffffffffffffffff16815250508073ffffffffffffffffffffffffffffffffffffffff1660a08173ffffffffffffffffffffffffffffffffffffffff16815250505050620001ee565b5f80fd5b5f73ffffffffffffffffffffffffffffffffffffffff82169050919050565b5f620001738262000148565b9050919050565b620001858162000167565b811462000190575f80fd5b50565b5f81519050620001a3816200017a565b92915050565b5f8060408385031215620001c257620001c162000144565b5b5f620001d18582860162000193565b9250506020620001e48582860162000193565b9150509250929050565b60805160a051611336620002255f395f81816107800152610d3101525f818161043601528181610a180152610ce801526113365ff3fe608060405234801561000f575f80fd5b50600436106100fe575f3560e01c806353793d7011610095578063c1be667711610064578063c1be6677146102d8578063c925c6801461030b578063defe80ef1461033b578063f4ec82eb14610359576100fe565b806353793d70146102605780636815a8121461027e5780637d4ab7f91461029c578063b5480a1a146102ba576100fe565b806330dbb4e4116100d157806330dbb4e4146101ae5780633adbb5af146101de5780633cdc53891461021257806342fd388014610230576100fe565b80631338736f1461010257806314d8a8b31461013257806317999384146101625780631e9a695014610192575b5f80fd5b61011c60048036038101906101179190610e12565b610377565b6040516101299190610e5f565b60405180910390f35b61014c60048036038101906101479190610ed2565b610719565b6040516101599190610e5f565b60405180910390f35b61017c60048036038101906101779190610e12565b61072e565b6040516101899190610e5f565b60405180910390f35b6101ac60048036038101906101a79190610efd565b61077e565b005b6101c860048036038101906101c39190610efd565b610b4f565b6040516101d59190610f55565b60405180910390f35b6101f860048036038101906101f39190610efd565b610c17565b604051610209959493929190610f6e565b60405180910390f35b61021a610ce6565b6040516102279190610fce565b60405180910390f35b61024a60048036038101906102459190610ed2565b610d0a565b6040516102579190610e5f565b60405180910390f35b610268610d1f565b6040516102759190610e5f565b60405180910390f35b610286610d24565b6040516102939190610e5f565b60405180910390f35b6102a4610d2a565b6040516102b19190610e5f565b60405180910390f35b6102c2610d2f565b6040516102cf9190610fce565b60405180910390f35b6102f260048036038101906102ed9190610efd565b610d53565b6040516103029493929190610fe7565b60405180910390f35b61032560048036038101906103209190610ed2565b610d89565b6040516103329190610e5f565b60405180910390f35b610343610dcf565b6040516103509190610e5f565b60405180910390f35b610361610dd5565b60405161036e9190610e5f565b60405180910390f35b5f8083036103b1576040517f2c5211c600000000000000000000000000000000000000000000000000000000815260040160405180910390fd5b5f82036103ea576040517f7616640100000000000000000000000000000000000000000000000000000000815260040160405180910390fd5b5f601883116103f957826103fc565b60185b90505f6103e860148361040f9190611057565b6103e861041c9190611098565b866104279190611057565b61043191906110f8565b90505f7f000000000000000000000000000000000000000000000000000000000000000073ffffffffffffffffffffffffffffffffffffffff166323b872dd3330896040518463ffffffff1660e01b815260040161049193929190611128565b6020604051808303815f875af11580156104ad573d5f803e3d5ffd5b505050506040513d601f19601f820116820180604052508101906104d19190611187565b905080610513576040517f08c379a000000000000000000000000000000000000000000000000000000000815260040161050a9061120c565b60405180910390fd5b60015f3373ffffffffffffffffffffffffffffffffffffffff1673ffffffffffffffffffffffffffffffffffffffff1681526020019081526020015f205493506040518060800160405280878152602001868152602001428152602001838152505f803373ffffffffffffffffffffffffffffffffffffffff1673ffffffffffffffffffffffffffffffffffffffff1681526020019081526020015f205f8681526020019081526020015f205f820151815f015560208201518160010155604082015181600201556060820151816003015590505060015f3373ffffffffffffffffffffffffffffffffffffffff1673ffffffffffffffffffffffffffffffffffffffff1681526020019081526020015f205f8154809291906106359061122a565b91905055508160025f3373ffffffffffffffffffffffffffffffffffffffff1673ffffffffffffffffffffffffffffffffffffffff1681526020019081526020015f205f8282546106869190611098565b925050819055508560035f82825461069e9190611098565b925050819055508160045f8282546106b69190611098565b92505081905550833373ffffffffffffffffffffffffffffffffffffffff167fc1126f780558d178a12a5cf08c087496f33400d9b431b6530eb0001f3c34fa9988888660405161070893929190611271565b60405180910390a350505092915050565b6002602052805f5260405f205f915090505481565b5f806018831161073e5782610741565b60185b90506103e86014826107539190611057565b6103e86107609190611098565b8561076b9190611057565b61077591906110f8565b91505092915050565b7f000000000000000000000000000000000000000000000000000000000000000073ffffffffffffffffffffffffffffffffffffffff163373ffffffffffffffffffffffffffffffffffffffff1614610803576040517f82b4290000000000000000000000000000000000000000000000000000000000815260040160405180910390fd5b5f805f8473ffffffffffffffffffffffffffffffffffffffff1673ffffffffffffffffffffffffffffffffffffffff1681526020019081526020015f205f8381526020019081526020015f206040518060800160405290815f8201548152602001600182015481526020016002820154815260200160038201548152505090505f815f0151036108bf576040517f6ec9be1100000000000000000000000000000000000000000000000000000000815260040160405180910390fd5b5f62278d0082602001516108d39190611057565b82604001516108e29190611098565b90508042101561091e576040517f6855a80200000000000000000000000000000000000000000000000000000000815260040160405180910390fd5b5f808573ffffffffffffffffffffffffffffffffffffffff1673ffffffffffffffffffffffffffffffffffffffff1681526020019081526020015f205f8481526020019081526020015f205f8082015f9055600182015f9055600282015f9055600382015f90555050816060015160025f8673ffffffffffffffffffffffffffffffffffffffff1673ffffffffffffffffffffffffffffffffffffffff1681526020019081526020015f205f8282546109d791906112a6565b92505081905550815f015160035f8282546109f291906112a6565b92505081905550816060015160045f828254610a0e91906112a6565b925050819055505f7f000000000000000000000000000000000000000000000000000000000000000073ffffffffffffffffffffffffffffffffffffffff1663a9059cbb86855f01516040518363ffffffff1660e01b8152600401610a749291906112d9565b6020604051808303815f875af1158015610a90573d5f803e3d5ffd5b505050506040513d601f19601f82011682018060405250810190610ab49190611187565b905080610af6576040517f08c379a0000000000000000000000000000000000000000000000000000000008152600401610aed9061120c565b60405180910390fd5b838573ffffffffffffffffffffffffffffffffffffffff167ff3a670cd3af7d64b488926880889d08a8585a138ff455227af6737339a1ec262855f0151604051610b409190610e5f565b60405180910390a35050505050565b5f805f808573ffffffffffffffffffffffffffffffffffffffff1673ffffffffffffffffffffffffffffffffffffffff1681526020019081526020015f205f8481526020019081526020015f206040518060800160405290815f8201548152602001600182015481526020016002820154815260200160038201548152505090505f815f015103610be3575f915050610c11565b5f62278d008260200151610bf79190611057565b8260400151610c069190611098565b905080421015925050505b92915050565b5f805f805f805f808973ffffffffffffffffffffffffffffffffffffffff1673ffffffffffffffffffffffffffffffffffffffff1681526020019081526020015f205f8881526020019081526020015f206040518060800160405290815f820154815260200160018201548152602001600282015481526020016003820154815250509050805f015181602001518260400151836060015162278d008560200151610cc29190611057565b8560400151610cd19190611098565b95509550955095509550509295509295909350565b7f000000000000000000000000000000000000000000000000000000000000000081565b6001602052805f5260405f205f915090505481565b601481565b60035481565b601881565b7f000000000000000000000000000000000000000000000000000000000000000081565b5f602052815f5260405f20602052805f5260405f205f9150915050805f0154908060010154908060020154908060030154905084565b5f60025f8373ffffffffffffffffffffffffffffffffffffffff1673ffffffffffffffffffffffffffffffffffffffff1681526020019081526020015f20549050919050565b6103e881565b60045481565b5f80fd5b5f819050919050565b610df181610ddf565b8114610dfb575f80fd5b50565b5f81359050610e0c81610de8565b92915050565b5f8060408385031215610e2857610e27610ddb565b5b5f610e3585828601610dfe565b9250506020610e4685828601610dfe565b9150509250929050565b610e5981610ddf565b82525050565b5f602082019050610e725f830184610e50565b92915050565b5f73ffffffffffffffffffffffffffffffffffffffff82169050919050565b5f610ea182610e78565b9050919050565b610eb181610e97565b8114610ebb575f80fd5b50565b5f81359050610ecc81610ea8565b92915050565b5f60208284031215610ee757610ee6610ddb565b5b5f610ef484828501610ebe565b91505092915050565b5f8060408385031215610f1357610f12610ddb565b5b5f610f2085828601610ebe565b9250506020610f3185828601610dfe565b9150509250929050565b5f8115159050919050565b610f4f81610f3b565b82525050565b5f602082019050610f685f830184610f46565b92915050565b5f60a082019050610f815f830188610e50565b610f8e6020830187610e50565b610f9b6040830186610e50565b610fa86060830185610e50565b610fb56080830184610e50565b9695505050505050565b610fc881610e97565b82525050565b5f602082019050610fe15f830184610fbf565b92915050565b5f608082019050610ffa5f830187610e50565b6110076020830186610e50565b6110146040830185610e50565b6110216060830184610e50565b95945050505050565b7f4e487b71000000000000000000000000000000000000000000000000000000005f52601160045260245ffd5b5f61106182610ddf565b915061106c83610ddf565b925082820261107a81610ddf565b915082820484148315176110915761109061102a565b5b5092915050565b5f6110a282610ddf565b91506110ad83610ddf565b92508282019050808211156110c5576110c461102a565b5b92915050565b7f4e487b71000000000000000000000000000000000000000000000000000000005f52601260045260245ffd5b5f61110282610ddf565b915061110d83610ddf565b92508261111d5761111c6110cb565b5b828204905092915050565b5f60608201905061113b5f830186610fbf565b6111486020830185610fbf565b6111556040830184610e50565b949350505050565b61116681610f3b565b8114611170575f80fd5b50565b5f815190506111818161115d565b92915050565b5f6020828403121561119c5761119b610ddb565b5b5f6111a984828501611173565b91505092915050565b5f82825260208201905092915050565b7f574254435f5452414e534645525f4641494c45440000000000000000000000005f82015250565b5f6111f66014836111b2565b9150611201826111c2565b602082019050919050565b5f6020820190508181035f830152611223816111ea565b9050919050565b5f61123482610ddf565b91507fffffffffffffffffffffffffffffffffffffffffffffffffffffffffffffffff82036112665761126561102a565b5b600182019050919050565b5f6060820190506112845f830186610e50565b6112916020830185610e50565b61129e6040830184610e50565b949350505050565b5f6112b082610ddf565b91506112bb83610ddf565b92508282039050818111156112d3576112d261102a565b5b92915050565b5f6040820190506112ec5f830185610fbf565b6112f96020830184610e50565b939250505056fea26469706673582212203ee455d395b494ac9883302196199059d28b6f9333fd18510519ff8fbb31a1bd64736f6c63430008140033","linkReferences":{}},"methodIdentifiers":{"MAX_WEIGHT_MONTHS()":"7d4ab7f9","WEIGHT_BASE()":"defe80ef","WEIGHT_PER_MONTH()":"53793d70","calculateWeight(uint256,uint256)":"17999384","getPosition(address,uint256)":"3adbb5af","getUserWeight(address)":"c925c680","isUnlocked(address,uint256)":"30dbb4e4","lock(uint256,uint256)":"1338736f","positionCount(address)":"42fd3880","positions(address,uint256)":"c1be6677","redeem(address,uint256)":"1e9a6950","redemptionEngine()":"b5480a1a","totalLockedWBTC()":"6815a812","totalSystemWeight()":"f4ec82eb","totalWeightOf(address)":"14d8a8b3","wbtc()":"3cdc5389"},"id":19}